{
	"remixd_practice/game.sol": {
		"RPS": {
			"abi": [
				{
					"inputs": [],
					"stateMutability": "payable",
					"type": "constructor"
				},
				{
					"inputs": [
						{
							"internalType": "uint256",
							"name": "roomNum",
							"type": "uint256"
						}
					],
					"name": "checkTotalPay",
					"outputs": [
						{
							"internalType": "uint256",
							"name": "roomNumPay",
							"type": "uint256"
						}
					],
					"stateMutability": "view",
					"type": "function"
				},
				{
					"inputs": [
						{
							"internalType": "enum RPS.Hand",
							"name": "_hand",
							"type": "uint8"
						}
					],
					"name": "createRoom",
					"outputs": [
						{
							"internalType": "uint256",
							"name": "roomNum",
							"type": "uint256"
						}
					],
					"stateMutability": "payable",
					"type": "function"
				},
				{
					"inputs": [
						{
							"internalType": "uint256",
							"name": "roomNum",
							"type": "uint256"
						},
						{
							"internalType": "enum RPS.Hand",
							"name": "_hand",
							"type": "uint8"
						}
					],
					"name": "joinRoom",
					"outputs": [],
					"stateMutability": "payable",
					"type": "function"
				},
				{
					"inputs": [
						{
							"internalType": "uint256",
							"name": "roomNum",
							"type": "uint256"
						}
					],
					"name": "payout",
					"outputs": [],
					"stateMutability": "payable",
					"type": "function"
				}
			],
			"devdoc": {
				"kind": "dev",
				"methods": {},
				"version": 1
			},
			"evm": {
				"assembly": "    /* \"remixd_practice/game.sol\":56:4950  contract RPS {... */\n  mstore(0x40, 0x80)\n    /* \"remixd_practice/game.sol\":1081:1082  0 */\n  0x00\n    /* \"remixd_practice/game.sol\":1066:1082  uint roomLen = 0 */\n  0x01\n  sstore\n    /* \"remixd_practice/game.sol\":56:4950  contract RPS {... */\n  dataSize(sub_0)\n  dup1\n  dataOffset(sub_0)\n  0x00\n  codecopy\n  0x00\n  return\nstop\n\nsub_0: assembly {\n        /* \"remixd_practice/game.sol\":56:4950  contract RPS {... */\n      mstore(0x40, 0x80)\n      jumpi(tag_1, lt(calldatasize, 0x04))\n      shr(0xe0, calldataload(0x00))\n      dup1\n      0x0f36f3b5\n      eq\n      tag_2\n      jumpi\n      dup1\n      0x393af760\n      eq\n      tag_3\n      jumpi\n      dup1\n      0x79b15776\n      eq\n      tag_4\n      jumpi\n      dup1\n      0xe1152343\n      eq\n      tag_5\n      jumpi\n    tag_1:\n      0x00\n      dup1\n      revert\n        /* \"remixd_practice/game.sol\":1429:2237  function createRoom (Hand _hand) public payable isValidHand(_hand) returns (uint roomNum) {... */\n    tag_2:\n      tag_6\n      0x04\n      dup1\n      calldatasize\n      sub\n      dup2\n      add\n      swap1\n      tag_7\n      swap2\n      swap1\n      tag_8\n      jump\t// in\n    tag_7:\n      tag_9\n      jump\t// in\n    tag_6:\n      mload(0x40)\n      tag_10\n      swap2\n      swap1\n      tag_11\n      jump\t// in\n    tag_10:\n      mload(0x40)\n      dup1\n      swap2\n      sub\n      swap1\n      return\n        /* \"remixd_practice/game.sol\":2754:2876  function checkTotalPay(uint roomNum) public view returns(uint roomNumPay){ ... */\n    tag_3:\n      callvalue\n      dup1\n      iszero\n      tag_12\n      jumpi\n      0x00\n      dup1\n      revert\n    tag_12:\n      pop\n      tag_13\n      0x04\n      dup1\n      calldatasize\n      sub\n      dup2\n      add\n      swap1\n      tag_14\n      swap2\n      swap1\n      tag_15\n      jump\t// in\n    tag_14:\n      tag_16\n      jump\t// in\n    tag_13:\n      mload(0x40)\n      tag_17\n      swap2\n      swap1\n      tag_11\n      jump\t// in\n    tag_17:\n      mload(0x40)\n      dup1\n      swap2\n      sub\n      swap1\n      return\n        /* \"remixd_practice/game.sol\":2247:2744  function joinRoom(uint roomNum, Hand _hand) public payable isValidHand( _hand) {... */\n    tag_4:\n      tag_18\n      0x04\n      dup1\n      calldatasize\n      sub\n      dup2\n      add\n      swap1\n      tag_19\n      swap2\n      swap1\n      tag_20\n      jump\t// in\n    tag_19:\n      tag_21\n      jump\t// in\n    tag_18:\n      stop\n        /* \"remixd_practice/game.sol\":2882:3941  function payout(uint roomNum) public payable isPlayer(roomNum, msg.sender) {... */\n    tag_5:\n      tag_22\n      0x04\n      dup1\n      calldatasize\n      sub\n      dup2\n      add\n      swap1\n      tag_23\n      swap2\n      swap1\n      tag_15\n      jump\t// in\n    tag_23:\n      tag_24\n      jump\t// in\n    tag_22:\n      stop\n        /* \"remixd_practice/game.sol\":1429:2237  function createRoom (Hand _hand) public payable isValidHand(_hand) returns (uint roomNum) {... */\n    tag_9:\n        /* \"remixd_practice/game.sol\":1505:1517  uint roomNum */\n      0x00\n        /* \"remixd_practice/game.sol\":1489:1494  _hand */\n      dup2\n        /* \"remixd_practice/game.sol\":1156:1165  Hand.rock */\n      0x00\n        /* \"remixd_practice/game.sol\":1146:1165  _hand  == Hand.rock */\n      0x02\n      dup2\n      gt\n      iszero\n      tag_26\n      jumpi\n      tag_27\n      tag_28\n      jump\t// in\n    tag_27:\n    tag_26:\n        /* \"remixd_practice/game.sol\":1146:1151  _hand */\n      dup2\n        /* \"remixd_practice/game.sol\":1146:1165  _hand  == Hand.rock */\n      0x02\n      dup2\n      gt\n      iszero\n      tag_29\n      jumpi\n      tag_30\n      tag_28\n      jump\t// in\n    tag_30:\n    tag_29:\n      eq\n        /* \"remixd_practice/game.sol\":1145:1192  (_hand  == Hand.rock) || (_hand  == Hand.paper) */\n      dup1\n      tag_31\n      jumpi\n      pop\n        /* \"remixd_practice/game.sol\":1181:1191  Hand.paper */\n      0x01\n        /* \"remixd_practice/game.sol\":1171:1191  _hand  == Hand.paper */\n      0x02\n      dup2\n      gt\n      iszero\n      tag_32\n      jumpi\n      tag_33\n      tag_28\n      jump\t// in\n    tag_33:\n    tag_32:\n        /* \"remixd_practice/game.sol\":1171:1176  _hand */\n      dup2\n        /* \"remixd_practice/game.sol\":1171:1191  _hand  == Hand.paper */\n      0x02\n      dup2\n      gt\n      iszero\n      tag_34\n      jumpi\n      tag_35\n      tag_28\n      jump\t// in\n    tag_35:\n    tag_34:\n      eq\n        /* \"remixd_practice/game.sol\":1145:1192  (_hand  == Hand.rock) || (_hand  == Hand.paper) */\n    tag_31:\n        /* \"remixd_practice/game.sol\":1145:1220  (_hand  == Hand.rock) || (_hand  == Hand.paper) || (_hand == Hand.scissors) */\n      dup1\n      tag_36\n      jumpi\n      pop\n        /* \"remixd_practice/game.sol\":1206:1219  Hand.scissors */\n      0x02\n        /* \"remixd_practice/game.sol\":1197:1219  _hand == Hand.scissors */\n      dup1\n      dup2\n      gt\n      iszero\n      tag_37\n      jumpi\n      tag_38\n      tag_28\n      jump\t// in\n    tag_38:\n    tag_37:\n        /* \"remixd_practice/game.sol\":1197:1202  _hand */\n      dup2\n        /* \"remixd_practice/game.sol\":1197:1219  _hand == Hand.scissors */\n      0x02\n      dup2\n      gt\n      iszero\n      tag_39\n      jumpi\n      tag_40\n      tag_28\n      jump\t// in\n    tag_40:\n    tag_39:\n      eq\n        /* \"remixd_practice/game.sol\":1145:1220  (_hand  == Hand.rock) || (_hand  == Hand.paper) || (_hand == Hand.scissors) */\n    tag_36:\n        /* \"remixd_practice/game.sol\":1137:1221  require((_hand  == Hand.rock) || (_hand  == Hand.paper) || (_hand == Hand.scissors)) */\n      tag_41\n      jumpi\n      0x00\n      dup1\n      revert\n    tag_41:\n        /* \"remixd_practice/game.sol\":1546:2105  Game({... */\n      mload(0x40)\n      dup1\n      0x80\n      add\n      0x40\n      mstore\n      dup1\n        /* \"remixd_practice/game.sol\":1576:1585  msg.value */\n      callvalue\n        /* \"remixd_practice/game.sol\":1546:2105  Game({... */\n      dup2\n      mstore\n      0x20\n      add\n        /* \"remixd_practice/game.sol\":1611:1640  GameStatus.STATUS_NOT_STARTED */\n      0x00\n        /* \"remixd_practice/game.sol\":1546:2105  Game({... */\n      0x03\n      dup2\n      gt\n      iszero\n      tag_43\n      jumpi\n      tag_44\n      tag_28\n      jump\t// in\n    tag_44:\n    tag_43:\n      dup2\n      mstore\n      0x20\n      add\n        /* \"remixd_practice/game.sol\":1666:1863  Player({... */\n      mload(0x40)\n      dup1\n      0x80\n      add\n      0x40\n      mstore\n      dup1\n        /* \"remixd_practice/game.sol\":1697:1702  _hand */\n      dup7\n        /* \"remixd_practice/game.sol\":1666:1863  Player({... */\n      0x02\n      dup2\n      gt\n      iszero\n      tag_45\n      jumpi\n      tag_46\n      tag_28\n      jump\t// in\n    tag_46:\n    tag_45:\n      dup2\n      mstore\n      0x20\n      add\n        /* \"remixd_practice/game.sol\":1734:1744  msg.sender */\n      caller\n        /* \"remixd_practice/game.sol\":1666:1863  Player({... */\n      0xffffffffffffffffffffffffffffffffffffffff\n      and\n      dup2\n      mstore\n      0x20\n      add\n        /* \"remixd_practice/game.sol\":1777:1804  PlayerStatus.STATUS_PENDING */\n      0x03\n        /* \"remixd_practice/game.sol\":1666:1863  Player({... */\n      dup1\n      dup2\n      gt\n      iszero\n      tag_47\n      jumpi\n      tag_48\n      tag_28\n      jump\t// in\n    tag_48:\n    tag_47:\n      dup2\n      mstore\n      0x20\n      add\n        /* \"remixd_practice/game.sol\":1839:1848  msg.value */\n      callvalue\n        /* \"remixd_practice/game.sol\":1666:1863  Player({... */\n      dup2\n      mstore\n      pop\n        /* \"remixd_practice/game.sol\":1546:2105  Game({... */\n      dup2\n      mstore\n      0x20\n      add\n        /* \"remixd_practice/game.sol\":1884:2094  Player({ // will change... */\n      mload(0x40)\n      dup1\n      0x80\n      add\n      0x40\n      mstore\n      dup1\n        /* \"remixd_practice/game.sol\":1930:1939  Hand.rock */\n      0x00\n        /* \"remixd_practice/game.sol\":1884:2094  Player({ // will change... */\n      0x02\n      dup2\n      gt\n      iszero\n      tag_49\n      jumpi\n      tag_50\n      tag_28\n      jump\t// in\n    tag_50:\n    tag_49:\n      dup2\n      mstore\n      0x20\n      add\n        /* \"remixd_practice/game.sol\":1971:1981  msg.sender */\n      caller\n        /* \"remixd_practice/game.sol\":1884:2094  Player({ // will change... */\n      0xffffffffffffffffffffffffffffffffffffffff\n      and\n      dup2\n      mstore\n      0x20\n      add\n        /* \"remixd_practice/game.sol\":2016:2043  PlayerStatus.STATUS_PENDING */\n      0x03\n        /* \"remixd_practice/game.sol\":1884:2094  Player({ // will change... */\n      dup1\n      dup2\n      gt\n      iszero\n      tag_51\n      jumpi\n      tag_52\n      tag_28\n      jump\t// in\n    tag_52:\n    tag_51:\n      dup2\n      mstore\n      0x20\n      add\n        /* \"remixd_practice/game.sol\":2078:2079  0 */\n      0x00\n        /* \"remixd_practice/game.sol\":1884:2094  Player({ // will change... */\n      dup2\n      mstore\n      pop\n        /* \"remixd_practice/game.sol\":1546:2105  Game({... */\n      dup2\n      mstore\n      pop\n        /* \"remixd_practice/game.sol\":1529:1534  rooms */\n      0x00\n        /* \"remixd_practice/game.sol\":1529:1543  rooms[roomLen] */\n      dup1\n        /* \"remixd_practice/game.sol\":1535:1542  roomLen */\n      sload(0x01)\n        /* \"remixd_practice/game.sol\":1529:1543  rooms[roomLen] */\n      dup2\n      mstore\n      0x20\n      add\n      swap1\n      dup2\n      mstore\n      0x20\n      add\n      0x00\n      keccak256\n        /* \"remixd_practice/game.sol\":1529:2105  rooms[roomLen] = Game({... */\n      0x00\n      dup3\n      add\n      mload\n      dup2\n      0x00\n      add\n      sstore\n      0x20\n      dup3\n      add\n      mload\n      dup2\n      0x01\n      add\n      exp(0x0100, 0x00)\n      dup2\n      sload\n      dup2\n      0xff\n      mul\n      not\n      and\n      swap1\n      dup4\n      0x03\n      dup2\n      gt\n      iszero\n      tag_53\n      jumpi\n      tag_54\n      tag_28\n      jump\t// in\n    tag_54:\n    tag_53:\n      mul\n      or\n      swap1\n      sstore\n      pop\n      0x40\n      dup3\n      add\n      mload\n      dup2\n      0x02\n      add\n      0x00\n      dup3\n      add\n      mload\n      dup2\n      0x00\n      add\n      exp(0x0100, 0x00)\n      dup2\n      sload\n      dup2\n      0xff\n      mul\n      not\n      and\n      swap1\n      dup4\n      0x02\n      dup2\n      gt\n      iszero\n      tag_55\n      jumpi\n      tag_56\n      tag_28\n      jump\t// in\n    tag_56:\n    tag_55:\n      mul\n      or\n      swap1\n      sstore\n      pop\n      0x20\n      dup3\n      add\n      mload\n      dup2\n      0x00\n      add\n      exp(0x0100, 0x01)\n      dup2\n      sload\n      dup2\n      0xffffffffffffffffffffffffffffffffffffffff\n      mul\n      not\n      and\n      swap1\n      dup4\n      0xffffffffffffffffffffffffffffffffffffffff\n      and\n      mul\n      or\n      swap1\n      sstore\n      pop\n      0x40\n      dup3\n      add\n      mload\n      dup2\n      0x00\n      add\n      exp(0x0100, 0x15)\n      dup2\n      sload\n      dup2\n      0xff\n      mul\n      not\n      and\n      swap1\n      dup4\n      0x03\n      dup2\n      gt\n      iszero\n      tag_57\n      jumpi\n      tag_58\n      tag_28\n      jump\t// in\n    tag_58:\n    tag_57:\n      mul\n      or\n      swap1\n      sstore\n      pop\n      0x60\n      dup3\n      add\n      mload\n      dup2\n      0x01\n      add\n      sstore\n      pop\n      pop\n      0x60\n      dup3\n      add\n      mload\n      dup2\n      0x04\n      add\n      0x00\n      dup3\n      add\n      mload\n      dup2\n      0x00\n      add\n      exp(0x0100, 0x00)\n      dup2\n      sload\n      dup2\n      0xff\n      mul\n      not\n      and\n      swap1\n      dup4\n      0x02\n      dup2\n      gt\n      iszero\n      tag_59\n      jumpi\n      tag_60\n      tag_28\n      jump\t// in\n    tag_60:\n    tag_59:\n      mul\n      or\n      swap1\n      sstore\n      pop\n      0x20\n      dup3\n      add\n      mload\n      dup2\n      0x00\n      add\n      exp(0x0100, 0x01)\n      dup2\n      sload\n      dup2\n      0xffffffffffffffffffffffffffffffffffffffff\n      mul\n      not\n      and\n      swap1\n      dup4\n      0xffffffffffffffffffffffffffffffffffffffff\n      and\n      mul\n      or\n      swap1\n      sstore\n      pop\n      0x40\n      dup3\n      add\n      mload\n      dup2\n      0x00\n      add\n      exp(0x0100, 0x15)\n      dup2\n      sload\n      dup2\n      0xff\n      mul\n      not\n      and\n      swap1\n      dup4\n      0x03\n      dup2\n      gt\n      iszero\n      tag_61\n      jumpi\n      tag_62\n      tag_28\n      jump\t// in\n    tag_62:\n    tag_61:\n      mul\n      or\n      swap1\n      sstore\n      pop\n      0x60\n      dup3\n      add\n      mload\n      dup2\n      0x01\n      add\n      sstore\n      pop\n      pop\n      swap1\n      pop\n      pop\n        /* \"remixd_practice/game.sol\":2125:2132  roomLen */\n      sload(0x01)\n        /* \"remixd_practice/game.sol\":2115:2132  roomNum = roomLen */\n      swap2\n      pop\n        /* \"remixd_practice/game.sol\":2160:2161  1 */\n      0x01\n        /* \"remixd_practice/game.sol\":2152:2159  roomLen */\n      dup1\n      sload\n        /* \"remixd_practice/game.sol\":2152:2161  roomLen+1 */\n      tag_63\n      swap2\n      swap1\n      tag_64\n      jump\t// in\n    tag_63:\n        /* \"remixd_practice/game.sol\":2142:2149  roomLen */\n      0x01\n        /* \"remixd_practice/game.sol\":2142:2161  roomLen = roomLen+1 */\n      dup2\n      swap1\n      sstore\n      pop\n        /* \"remixd_practice/game.sol\":1429:2237  function createRoom (Hand _hand) public payable isValidHand(_hand) returns (uint roomNum) {... */\n      pop\n      swap2\n      swap1\n      pop\n      jump\t// out\n        /* \"remixd_practice/game.sol\":2754:2876  function checkTotalPay(uint roomNum) public view returns(uint roomNumPay){ ... */\n    tag_16:\n        /* \"remixd_practice/game.sol\":2811:2826  uint roomNumPay */\n      0x00\n        /* \"remixd_practice/game.sol\":2845:2850  rooms */\n      dup1\n        /* \"remixd_practice/game.sol\":2845:2859  rooms[roomNum] */\n      0x00\n        /* \"remixd_practice/game.sol\":2851:2858  roomNum */\n      dup4\n        /* \"remixd_practice/game.sol\":2845:2859  rooms[roomNum] */\n      dup2\n      mstore\n      0x20\n      add\n      swap1\n      dup2\n      mstore\n      0x20\n      add\n      0x00\n      keccak256\n        /* \"remixd_practice/game.sol\":2845:2869  rooms[roomNum].betAmount */\n      0x00\n      add\n      sload\n        /* \"remixd_practice/game.sol\":2838:2869  return rooms[roomNum].betAmount */\n      swap1\n      pop\n        /* \"remixd_practice/game.sol\":2754:2876  function checkTotalPay(uint roomNum) public view returns(uint roomNumPay){ ... */\n      swap2\n      swap1\n      pop\n      jump\t// out\n        /* \"remixd_practice/game.sol\":2247:2744  function joinRoom(uint roomNum, Hand _hand) public payable isValidHand( _hand) {... */\n    tag_21:\n        /* \"remixd_practice/game.sol\":2319:2324  _hand */\n      dup1\n        /* \"remixd_practice/game.sol\":1156:1165  Hand.rock */\n      0x00\n        /* \"remixd_practice/game.sol\":1146:1165  _hand  == Hand.rock */\n      0x02\n      dup2\n      gt\n      iszero\n      tag_67\n      jumpi\n      tag_68\n      tag_28\n      jump\t// in\n    tag_68:\n    tag_67:\n        /* \"remixd_practice/game.sol\":1146:1151  _hand */\n      dup2\n        /* \"remixd_practice/game.sol\":1146:1165  _hand  == Hand.rock */\n      0x02\n      dup2\n      gt\n      iszero\n      tag_69\n      jumpi\n      tag_70\n      tag_28\n      jump\t// in\n    tag_70:\n    tag_69:\n      eq\n        /* \"remixd_practice/game.sol\":1145:1192  (_hand  == Hand.rock) || (_hand  == Hand.paper) */\n      dup1\n      tag_71\n      jumpi\n      pop\n        /* \"remixd_practice/game.sol\":1181:1191  Hand.paper */\n      0x01\n        /* \"remixd_practice/game.sol\":1171:1191  _hand  == Hand.paper */\n      0x02\n      dup2\n      gt\n      iszero\n      tag_72\n      jumpi\n      tag_73\n      tag_28\n      jump\t// in\n    tag_73:\n    tag_72:\n        /* \"remixd_practice/game.sol\":1171:1176  _hand */\n      dup2\n        /* \"remixd_practice/game.sol\":1171:1191  _hand  == Hand.paper */\n      0x02\n      dup2\n      gt\n      iszero\n      tag_74\n      jumpi\n      tag_75\n      tag_28\n      jump\t// in\n    tag_75:\n    tag_74:\n      eq\n        /* \"remixd_practice/game.sol\":1145:1192  (_hand  == Hand.rock) || (_hand  == Hand.paper) */\n    tag_71:\n        /* \"remixd_practice/game.sol\":1145:1220  (_hand  == Hand.rock) || (_hand  == Hand.paper) || (_hand == Hand.scissors) */\n      dup1\n      tag_76\n      jumpi\n      pop\n        /* \"remixd_practice/game.sol\":1206:1219  Hand.scissors */\n      0x02\n        /* \"remixd_practice/game.sol\":1197:1219  _hand == Hand.scissors */\n      dup1\n      dup2\n      gt\n      iszero\n      tag_77\n      jumpi\n      tag_78\n      tag_28\n      jump\t// in\n    tag_78:\n    tag_77:\n        /* \"remixd_practice/game.sol\":1197:1202  _hand */\n      dup2\n        /* \"remixd_practice/game.sol\":1197:1219  _hand == Hand.scissors */\n      0x02\n      dup2\n      gt\n      iszero\n      tag_79\n      jumpi\n      tag_80\n      tag_28\n      jump\t// in\n    tag_80:\n    tag_79:\n      eq\n        /* \"remixd_practice/game.sol\":1145:1220  (_hand  == Hand.rock) || (_hand  == Hand.paper) || (_hand == Hand.scissors) */\n    tag_76:\n        /* \"remixd_practice/game.sol\":1137:1221  require((_hand  == Hand.rock) || (_hand  == Hand.paper) || (_hand == Hand.scissors)) */\n      tag_81\n      jumpi\n      0x00\n      dup1\n      revert\n    tag_81:\n        /* \"remixd_practice/game.sol\":2456:2633  Player({... */\n      mload(0x40)\n      dup1\n      0x80\n      add\n      0x40\n      mstore\n      dup1\n        /* \"remixd_practice/game.sol\":2483:2488  _hand */\n      dup4\n        /* \"remixd_practice/game.sol\":2456:2633  Player({... */\n      0x02\n      dup2\n      gt\n      iszero\n      tag_83\n      jumpi\n      tag_84\n      tag_28\n      jump\t// in\n    tag_84:\n    tag_83:\n      dup2\n      mstore\n      0x20\n      add\n        /* \"remixd_practice/game.sol\":2516:2526  msg.sender */\n      caller\n        /* \"remixd_practice/game.sol\":2456:2633  Player({... */\n      0xffffffffffffffffffffffffffffffffffffffff\n      and\n      dup2\n      mstore\n      0x20\n      add\n        /* \"remixd_practice/game.sol\":2555:2582  PlayerStatus.STATUS_PENDING */\n      0x03\n        /* \"remixd_practice/game.sol\":2456:2633  Player({... */\n      dup1\n      dup2\n      gt\n      iszero\n      tag_85\n      jumpi\n      tag_86\n      tag_28\n      jump\t// in\n    tag_86:\n    tag_85:\n      dup2\n      mstore\n      0x20\n      add\n        /* \"remixd_practice/game.sol\":2613:2622  msg.value */\n      callvalue\n        /* \"remixd_practice/game.sol\":2456:2633  Player({... */\n      dup2\n      mstore\n      pop\n        /* \"remixd_practice/game.sol\":2433:2438  rooms */\n      0x00\n        /* \"remixd_practice/game.sol\":2433:2447  rooms[roomNum] */\n      dup1\n        /* \"remixd_practice/game.sol\":2439:2446  roomNum */\n      dup6\n        /* \"remixd_practice/game.sol\":2433:2447  rooms[roomNum] */\n      dup2\n      mstore\n      0x20\n      add\n      swap1\n      dup2\n      mstore\n      0x20\n      add\n      0x00\n      keccak256\n        /* \"remixd_practice/game.sol\":2433:2453  rooms[roomNum].taker */\n      0x04\n      add\n        /* \"remixd_practice/game.sol\":2433:2633  rooms[roomNum].taker = Player({... */\n      0x00\n      dup3\n      add\n      mload\n      dup2\n      0x00\n      add\n      exp(0x0100, 0x00)\n      dup2\n      sload\n      dup2\n      0xff\n      mul\n      not\n      and\n      swap1\n      dup4\n      0x02\n      dup2\n      gt\n      iszero\n      tag_87\n      jumpi\n      tag_88\n      tag_28\n      jump\t// in\n    tag_88:\n    tag_87:\n      mul\n      or\n      swap1\n      sstore\n      pop\n      0x20\n      dup3\n      add\n      mload\n      dup2\n      0x00\n      add\n      exp(0x0100, 0x01)\n      dup2\n      sload\n      dup2\n      0xffffffffffffffffffffffffffffffffffffffff\n      mul\n      not\n      and\n      swap1\n      dup4\n      0xffffffffffffffffffffffffffffffffffffffff\n      and\n      mul\n      or\n      swap1\n      sstore\n      pop\n      0x40\n      dup3\n      add\n      mload\n      dup2\n      0x00\n      add\n      exp(0x0100, 0x15)\n      dup2\n      sload\n      dup2\n      0xff\n      mul\n      not\n      and\n      swap1\n      dup4\n      0x03\n      dup2\n      gt\n      iszero\n      tag_89\n      jumpi\n      tag_90\n      tag_28\n      jump\t// in\n    tag_90:\n    tag_89:\n      mul\n      or\n      swap1\n      sstore\n      pop\n      0x60\n      dup3\n      add\n      mload\n      dup2\n      0x01\n      add\n      sstore\n      swap1\n      pop\n      pop\n        /* \"remixd_practice/game.sol\":2697:2706  msg.value */\n      callvalue\n        /* \"remixd_practice/game.sol\":2670:2675  rooms */\n      0x00\n        /* \"remixd_practice/game.sol\":2670:2684  rooms[roomNum] */\n      dup1\n        /* \"remixd_practice/game.sol\":2676:2683  roomNum */\n      dup6\n        /* \"remixd_practice/game.sol\":2670:2684  rooms[roomNum] */\n      dup2\n      mstore\n      0x20\n      add\n      swap1\n      dup2\n      mstore\n      0x20\n      add\n      0x00\n      keccak256\n        /* \"remixd_practice/game.sol\":2670:2694  rooms[roomNum].betAmount */\n      0x00\n      add\n      sload\n        /* \"remixd_practice/game.sol\":2670:2706  rooms[roomNum].betAmount + msg.value */\n      tag_91\n      swap2\n      swap1\n      tag_64\n      jump\t// in\n    tag_91:\n        /* \"remixd_practice/game.sol\":2643:2648  rooms */\n      0x00\n        /* \"remixd_practice/game.sol\":2643:2657  rooms[roomNum] */\n      dup1\n        /* \"remixd_practice/game.sol\":2649:2656  roomNum */\n      dup6\n        /* \"remixd_practice/game.sol\":2643:2657  rooms[roomNum] */\n      dup2\n      mstore\n      0x20\n      add\n      swap1\n      dup2\n      mstore\n      0x20\n      add\n      0x00\n      keccak256\n        /* \"remixd_practice/game.sol\":2643:2667  rooms[roomNum].betAmount */\n      0x00\n      add\n        /* \"remixd_practice/game.sol\":2643:2706  rooms[roomNum].betAmount = rooms[roomNum].betAmount + msg.value */\n      dup2\n      swap1\n      sstore\n      pop\n        /* \"remixd_practice/game.sol\":2716:2737  compareHands(roomNum) */\n      tag_92\n        /* \"remixd_practice/game.sol\":2729:2736  roomNum */\n      dup4\n        /* \"remixd_practice/game.sol\":2716:2728  compareHands */\n      tag_93\n        /* \"remixd_practice/game.sol\":2716:2737  compareHands(roomNum) */\n      jump\t// in\n    tag_92:\n        /* \"remixd_practice/game.sol\":2247:2744  function joinRoom(uint roomNum, Hand _hand) public payable isValidHand( _hand) {... */\n      pop\n      pop\n      pop\n      jump\t// out\n        /* \"remixd_practice/game.sol\":2882:3941  function payout(uint roomNum) public payable isPlayer(roomNum, msg.sender) {... */\n    tag_24:\n        /* \"remixd_practice/game.sol\":2936:2943  roomNum */\n      dup1\n        /* \"remixd_practice/game.sol\":2945:2955  msg.sender */\n      caller\n        /* \"remixd_practice/game.sol\":1326:1331  rooms */\n      0x00\n        /* \"remixd_practice/game.sol\":1326:1340  rooms[roomNum] */\n      dup1\n        /* \"remixd_practice/game.sol\":1332:1339  roomNum */\n      dup4\n        /* \"remixd_practice/game.sol\":1326:1340  rooms[roomNum] */\n      dup2\n      mstore\n      0x20\n      add\n      swap1\n      dup2\n      mstore\n      0x20\n      add\n      0x00\n      keccak256\n        /* \"remixd_practice/game.sol\":1326:1351  rooms[roomNum].originator */\n      0x02\n      add\n        /* \"remixd_practice/game.sol\":1326:1356  rooms[roomNum].originator.addr */\n      0x00\n      add\n      0x01\n      swap1\n      sload\n      swap1\n      0x0100\n      exp\n      swap1\n      div\n      0xffffffffffffffffffffffffffffffffffffffff\n      and\n        /* \"remixd_practice/game.sol\":1316:1356  sender == rooms[roomNum].originator.addr */\n      0xffffffffffffffffffffffffffffffffffffffff\n      and\n        /* \"remixd_practice/game.sol\":1316:1322  sender */\n      dup2\n        /* \"remixd_practice/game.sol\":1316:1356  sender == rooms[roomNum].originator.addr */\n      0xffffffffffffffffffffffffffffffffffffffff\n      and\n      eq\n        /* \"remixd_practice/game.sol\":1316:1395  sender == rooms[roomNum].originator.addr || sender == rooms[roomNum].taker.addr */\n      dup1\n      tag_95\n      jumpi\n      pop\n        /* \"remixd_practice/game.sol\":1370:1375  rooms */\n      0x00\n        /* \"remixd_practice/game.sol\":1370:1384  rooms[roomNum] */\n      dup1\n        /* \"remixd_practice/game.sol\":1376:1383  roomNum */\n      dup4\n        /* \"remixd_practice/game.sol\":1370:1384  rooms[roomNum] */\n      dup2\n      mstore\n      0x20\n      add\n      swap1\n      dup2\n      mstore\n      0x20\n      add\n      0x00\n      keccak256\n        /* \"remixd_practice/game.sol\":1370:1390  rooms[roomNum].taker */\n      0x04\n      add\n        /* \"remixd_practice/game.sol\":1370:1395  rooms[roomNum].taker.addr */\n      0x00\n      add\n      0x01\n      swap1\n      sload\n      swap1\n      0x0100\n      exp\n      swap1\n      div\n      0xffffffffffffffffffffffffffffffffffffffff\n      and\n        /* \"remixd_practice/game.sol\":1360:1395  sender == rooms[roomNum].taker.addr */\n      0xffffffffffffffffffffffffffffffffffffffff\n      and\n        /* \"remixd_practice/game.sol\":1360:1366  sender */\n      dup2\n        /* \"remixd_practice/game.sol\":1360:1395  sender == rooms[roomNum].taker.addr */\n      0xffffffffffffffffffffffffffffffffffffffff\n      and\n      eq\n        /* \"remixd_practice/game.sol\":1316:1395  sender == rooms[roomNum].originator.addr || sender == rooms[roomNum].taker.addr */\n    tag_95:\n        /* \"remixd_practice/game.sol\":1308:1396  require(sender == rooms[roomNum].originator.addr || sender == rooms[roomNum].taker.addr) */\n      tag_96\n      jumpi\n      0x00\n      dup1\n      revert\n    tag_96:\n        /* \"remixd_practice/game.sol\":3013:3036  PlayerStatus.STATUS_TIE */\n      0x02\n        /* \"remixd_practice/game.sol\":2971:3036  rooms[roomNum].originator.playerStatus == PlayerStatus.STATUS_TIE */\n      0x03\n      dup2\n      gt\n      iszero\n      tag_98\n      jumpi\n      tag_99\n      tag_28\n      jump\t// in\n    tag_99:\n    tag_98:\n        /* \"remixd_practice/game.sol\":2971:2976  rooms */\n      0x00\n        /* \"remixd_practice/game.sol\":2971:2985  rooms[roomNum] */\n      dup1\n        /* \"remixd_practice/game.sol\":2977:2984  roomNum */\n      dup6\n        /* \"remixd_practice/game.sol\":2971:2985  rooms[roomNum] */\n      dup2\n      mstore\n      0x20\n      add\n      swap1\n      dup2\n      mstore\n      0x20\n      add\n      0x00\n      keccak256\n        /* \"remixd_practice/game.sol\":2971:2996  rooms[roomNum].originator */\n      0x02\n      add\n        /* \"remixd_practice/game.sol\":2971:3009  rooms[roomNum].originator.playerStatus */\n      0x00\n      add\n      0x15\n      swap1\n      sload\n      swap1\n      0x0100\n      exp\n      swap1\n      div\n      0xff\n      and\n        /* \"remixd_practice/game.sol\":2971:3036  rooms[roomNum].originator.playerStatus == PlayerStatus.STATUS_TIE */\n      0x03\n      dup2\n      gt\n      iszero\n      tag_100\n      jumpi\n      tag_101\n      tag_28\n      jump\t// in\n    tag_101:\n    tag_100:\n      eq\n        /* \"remixd_practice/game.sol\":2971:3100  rooms[roomNum].originator.playerStatus == PlayerStatus.STATUS_TIE && rooms[roomNum].taker.playerStatus == PlayerStatus.STATUS_TIE */\n      dup1\n      iszero\n      tag_102\n      jumpi\n      pop\n        /* \"remixd_practice/game.sol\":3077:3100  PlayerStatus.STATUS_TIE */\n      0x02\n        /* \"remixd_practice/game.sol\":3040:3100  rooms[roomNum].taker.playerStatus == PlayerStatus.STATUS_TIE */\n      0x03\n      dup2\n      gt\n      iszero\n      tag_103\n      jumpi\n      tag_104\n      tag_28\n      jump\t// in\n    tag_104:\n    tag_103:\n        /* \"remixd_practice/game.sol\":3040:3045  rooms */\n      0x00\n        /* \"remixd_practice/game.sol\":3040:3054  rooms[roomNum] */\n      dup1\n        /* \"remixd_practice/game.sol\":3046:3053  roomNum */\n      dup6\n        /* \"remixd_practice/game.sol\":3040:3054  rooms[roomNum] */\n      dup2\n      mstore\n      0x20\n      add\n      swap1\n      dup2\n      mstore\n      0x20\n      add\n      0x00\n      keccak256\n        /* \"remixd_practice/game.sol\":3040:3060  rooms[roomNum].taker */\n      0x04\n      add\n        /* \"remixd_practice/game.sol\":3040:3073  rooms[roomNum].taker.playerStatus */\n      0x00\n      add\n      0x15\n      swap1\n      sload\n      swap1\n      0x0100\n      exp\n      swap1\n      div\n      0xff\n      and\n        /* \"remixd_practice/game.sol\":3040:3100  rooms[roomNum].taker.playerStatus == PlayerStatus.STATUS_TIE */\n      0x03\n      dup2\n      gt\n      iszero\n      tag_105\n      jumpi\n      tag_106\n      tag_28\n      jump\t// in\n    tag_106:\n    tag_105:\n      eq\n        /* \"remixd_practice/game.sol\":2971:3100  rooms[roomNum].originator.playerStatus == PlayerStatus.STATUS_TIE && rooms[roomNum].taker.playerStatus == PlayerStatus.STATUS_TIE */\n    tag_102:\n        /* \"remixd_practice/game.sol\":2967:3870  if (rooms[roomNum].originator.playerStatus == PlayerStatus.STATUS_TIE && rooms[roomNum].taker.playerStatus == PlayerStatus.STATUS_TIE) {... */\n      iszero\n      tag_107\n      jumpi\n        /* \"remixd_practice/game.sol\":3116:3121  rooms */\n      0x00\n        /* \"remixd_practice/game.sol\":3116:3130  rooms[roomNum] */\n      dup1\n        /* \"remixd_practice/game.sol\":3122:3129  roomNum */\n      dup5\n        /* \"remixd_practice/game.sol\":3116:3130  rooms[roomNum] */\n      dup2\n      mstore\n      0x20\n      add\n      swap1\n      dup2\n      mstore\n      0x20\n      add\n      0x00\n      keccak256\n        /* \"remixd_practice/game.sol\":3116:3141  rooms[roomNum].originator */\n      0x02\n      add\n        /* \"remixd_practice/game.sol\":3116:3146  rooms[roomNum].originator.addr */\n      0x00\n      add\n      0x01\n      swap1\n      sload\n      swap1\n      0x0100\n      exp\n      swap1\n      div\n      0xffffffffffffffffffffffffffffffffffffffff\n      and\n        /* \"remixd_practice/game.sol\":3116:3155  rooms[roomNum].originator.addr.transfer */\n      0xffffffffffffffffffffffffffffffffffffffff\n      and\n        /* \"remixd_practice/game.sol\":3116:3198  rooms[roomNum].originator.addr.transfer(rooms[roomNum].originator.playerBetAmount) */\n      0x08fc\n        /* \"remixd_practice/game.sol\":3156:3161  rooms */\n      0x00\n        /* \"remixd_practice/game.sol\":3156:3170  rooms[roomNum] */\n      dup1\n        /* \"remixd_practice/game.sol\":3162:3169  roomNum */\n      dup7\n        /* \"remixd_practice/game.sol\":3156:3170  rooms[roomNum] */\n      dup2\n      mstore\n      0x20\n      add\n      swap1\n      dup2\n      mstore\n      0x20\n      add\n      0x00\n      keccak256\n        /* \"remixd_practice/game.sol\":3156:3181  rooms[roomNum].originator */\n      0x02\n      add\n        /* \"remixd_practice/game.sol\":3156:3197  rooms[roomNum].originator.playerBetAmount */\n      0x01\n      add\n      sload\n        /* \"remixd_practice/game.sol\":3116:3198  rooms[roomNum].originator.addr.transfer(rooms[roomNum].originator.playerBetAmount) */\n      swap1\n      dup2\n      iszero\n      mul\n      swap1\n      mload(0x40)\n      0x00\n      mload(0x40)\n      dup1\n      dup4\n      sub\n      dup2\n      dup6\n      dup9\n      dup9\n      call\n      swap4\n      pop\n      pop\n      pop\n      pop\n      iszero\n      dup1\n      iszero\n      tag_109\n      jumpi\n      returndatasize\n      0x00\n      dup1\n      returndatacopy\n      revert(0x00, returndatasize)\n    tag_109:\n      pop\n        /* \"remixd_practice/game.sol\":3212:3217  rooms */\n      0x00\n        /* \"remixd_practice/game.sol\":3212:3226  rooms[roomNum] */\n      dup1\n        /* \"remixd_practice/game.sol\":3218:3225  roomNum */\n      dup5\n        /* \"remixd_practice/game.sol\":3212:3226  rooms[roomNum] */\n      dup2\n      mstore\n      0x20\n      add\n      swap1\n      dup2\n      mstore\n      0x20\n      add\n      0x00\n      keccak256\n        /* \"remixd_practice/game.sol\":3212:3232  rooms[roomNum].taker */\n      0x04\n      add\n        /* \"remixd_practice/game.sol\":3212:3237  rooms[roomNum].taker.addr */\n      0x00\n      add\n      0x01\n      swap1\n      sload\n      swap1\n      0x0100\n      exp\n      swap1\n      div\n      0xffffffffffffffffffffffffffffffffffffffff\n      and\n        /* \"remixd_practice/game.sol\":3212:3246  rooms[roomNum].taker.addr.transfer */\n      0xffffffffffffffffffffffffffffffffffffffff\n      and\n        /* \"remixd_practice/game.sol\":3212:3284  rooms[roomNum].taker.addr.transfer(rooms[roomNum].taker.playerBetAmount) */\n      0x08fc\n        /* \"remixd_practice/game.sol\":3247:3252  rooms */\n      0x00\n        /* \"remixd_practice/game.sol\":3247:3261  rooms[roomNum] */\n      dup1\n        /* \"remixd_practice/game.sol\":3253:3260  roomNum */\n      dup7\n        /* \"remixd_practice/game.sol\":3247:3261  rooms[roomNum] */\n      dup2\n      mstore\n      0x20\n      add\n      swap1\n      dup2\n      mstore\n      0x20\n      add\n      0x00\n      keccak256\n        /* \"remixd_practice/game.sol\":3247:3267  rooms[roomNum].taker */\n      0x04\n      add\n        /* \"remixd_practice/game.sol\":3247:3283  rooms[roomNum].taker.playerBetAmount */\n      0x01\n      add\n      sload\n        /* \"remixd_practice/game.sol\":3212:3284  rooms[roomNum].taker.addr.transfer(rooms[roomNum].taker.playerBetAmount) */\n      swap1\n      dup2\n      iszero\n      mul\n      swap1\n      mload(0x40)\n      0x00\n      mload(0x40)\n      dup1\n      dup4\n      sub\n      dup2\n      dup6\n      dup9\n      dup9\n      call\n      swap4\n      pop\n      pop\n      pop\n      pop\n      iszero\n      dup1\n      iszero\n      tag_111\n      jumpi\n      returndatasize\n      0x00\n      dup1\n      returndatacopy\n      revert(0x00, returndatasize)\n    tag_111:\n      pop\n        /* \"remixd_practice/game.sol\":2967:3870  if (rooms[roomNum].originator.playerStatus == PlayerStatus.STATUS_TIE && rooms[roomNum].taker.playerStatus == PlayerStatus.STATUS_TIE) {... */\n      jump(tag_112)\n    tag_107:\n        /* \"remixd_practice/game.sol\":3361:3384  PlayerStatus.STATUS_WIN */\n      0x00\n        /* \"remixd_practice/game.sol\":3319:3384  rooms[roomNum].originator.playerStatus == PlayerStatus.STATUS_WIN */\n      0x03\n      dup2\n      gt\n      iszero\n      tag_113\n      jumpi\n      tag_114\n      tag_28\n      jump\t// in\n    tag_114:\n    tag_113:\n        /* \"remixd_practice/game.sol\":3319:3324  rooms */\n      0x00\n        /* \"remixd_practice/game.sol\":3319:3333  rooms[roomNum] */\n      dup1\n        /* \"remixd_practice/game.sol\":3325:3332  roomNum */\n      dup6\n        /* \"remixd_practice/game.sol\":3319:3333  rooms[roomNum] */\n      dup2\n      mstore\n      0x20\n      add\n      swap1\n      dup2\n      mstore\n      0x20\n      add\n      0x00\n      keccak256\n        /* \"remixd_practice/game.sol\":3319:3344  rooms[roomNum].originator */\n      0x02\n      add\n        /* \"remixd_practice/game.sol\":3319:3357  rooms[roomNum].originator.playerStatus */\n      0x00\n      add\n      0x15\n      swap1\n      sload\n      swap1\n      0x0100\n      exp\n      swap1\n      div\n      0xff\n      and\n        /* \"remixd_practice/game.sol\":3319:3384  rooms[roomNum].originator.playerStatus == PlayerStatus.STATUS_WIN */\n      0x03\n      dup2\n      gt\n      iszero\n      tag_115\n      jumpi\n      tag_116\n      tag_28\n      jump\t// in\n    tag_116:\n    tag_115:\n      eq\n        /* \"remixd_practice/game.sol\":3315:3860  if (rooms[roomNum].originator.playerStatus == PlayerStatus.STATUS_WIN) {... */\n      iszero\n      tag_117\n      jumpi\n        /* \"remixd_practice/game.sol\":3404:3409  rooms */\n      0x00\n        /* \"remixd_practice/game.sol\":3404:3418  rooms[roomNum] */\n      dup1\n        /* \"remixd_practice/game.sol\":3410:3417  roomNum */\n      dup5\n        /* \"remixd_practice/game.sol\":3404:3418  rooms[roomNum] */\n      dup2\n      mstore\n      0x20\n      add\n      swap1\n      dup2\n      mstore\n      0x20\n      add\n      0x00\n      keccak256\n        /* \"remixd_practice/game.sol\":3404:3429  rooms[roomNum].originator */\n      0x02\n      add\n        /* \"remixd_practice/game.sol\":3404:3434  rooms[roomNum].originator.addr */\n      0x00\n      add\n      0x01\n      swap1\n      sload\n      swap1\n      0x0100\n      exp\n      swap1\n      div\n      0xffffffffffffffffffffffffffffffffffffffff\n      and\n        /* \"remixd_practice/game.sol\":3404:3443  rooms[roomNum].originator.addr.transfer */\n      0xffffffffffffffffffffffffffffffffffffffff\n      and\n        /* \"remixd_practice/game.sol\":3404:3469  rooms[roomNum].originator.addr.transfer(rooms[roomNum].betAmount) */\n      0x08fc\n        /* \"remixd_practice/game.sol\":3444:3449  rooms */\n      0x00\n        /* \"remixd_practice/game.sol\":3444:3458  rooms[roomNum] */\n      dup1\n        /* \"remixd_practice/game.sol\":3450:3457  roomNum */\n      dup7\n        /* \"remixd_practice/game.sol\":3444:3458  rooms[roomNum] */\n      dup2\n      mstore\n      0x20\n      add\n      swap1\n      dup2\n      mstore\n      0x20\n      add\n      0x00\n      keccak256\n        /* \"remixd_practice/game.sol\":3444:3468  rooms[roomNum].betAmount */\n      0x00\n      add\n      sload\n        /* \"remixd_practice/game.sol\":3404:3469  rooms[roomNum].originator.addr.transfer(rooms[roomNum].betAmount) */\n      swap1\n      dup2\n      iszero\n      mul\n      swap1\n      mload(0x40)\n      0x00\n      mload(0x40)\n      dup1\n      dup4\n      sub\n      dup2\n      dup6\n      dup9\n      dup9\n      call\n      swap4\n      pop\n      pop\n      pop\n      pop\n      iszero\n      dup1\n      iszero\n      tag_119\n      jumpi\n      returndatasize\n      0x00\n      dup1\n      returndatacopy\n      revert(0x00, returndatasize)\n    tag_119:\n      pop\n        /* \"remixd_practice/game.sol\":3315:3860  if (rooms[roomNum].originator.playerStatus == PlayerStatus.STATUS_WIN) {... */\n      jump(tag_120)\n    tag_117:\n        /* \"remixd_practice/game.sol\":3531:3554  PlayerStatus.STATUS_WIN */\n      0x00\n        /* \"remixd_practice/game.sol\":3494:3554  rooms[roomNum].taker.playerStatus == PlayerStatus.STATUS_WIN */\n      0x03\n      dup2\n      gt\n      iszero\n      tag_121\n      jumpi\n      tag_122\n      tag_28\n      jump\t// in\n    tag_122:\n    tag_121:\n        /* \"remixd_practice/game.sol\":3494:3499  rooms */\n      0x00\n        /* \"remixd_practice/game.sol\":3494:3508  rooms[roomNum] */\n      dup1\n        /* \"remixd_practice/game.sol\":3500:3507  roomNum */\n      dup6\n        /* \"remixd_practice/game.sol\":3494:3508  rooms[roomNum] */\n      dup2\n      mstore\n      0x20\n      add\n      swap1\n      dup2\n      mstore\n      0x20\n      add\n      0x00\n      keccak256\n        /* \"remixd_practice/game.sol\":3494:3514  rooms[roomNum].taker */\n      0x04\n      add\n        /* \"remixd_practice/game.sol\":3494:3527  rooms[roomNum].taker.playerStatus */\n      0x00\n      add\n      0x15\n      swap1\n      sload\n      swap1\n      0x0100\n      exp\n      swap1\n      div\n      0xff\n      and\n        /* \"remixd_practice/game.sol\":3494:3554  rooms[roomNum].taker.playerStatus == PlayerStatus.STATUS_WIN */\n      0x03\n      dup2\n      gt\n      iszero\n      tag_123\n      jumpi\n      tag_124\n      tag_28\n      jump\t// in\n    tag_124:\n    tag_123:\n      eq\n        /* \"remixd_practice/game.sol\":3490:3860  if (rooms[roomNum].taker.playerStatus == PlayerStatus.STATUS_WIN) {... */\n      iszero\n      tag_125\n      jumpi\n        /* \"remixd_practice/game.sol\":3574:3579  rooms */\n      0x00\n        /* \"remixd_practice/game.sol\":3574:3588  rooms[roomNum] */\n      dup1\n        /* \"remixd_practice/game.sol\":3580:3587  roomNum */\n      dup5\n        /* \"remixd_practice/game.sol\":3574:3588  rooms[roomNum] */\n      dup2\n      mstore\n      0x20\n      add\n      swap1\n      dup2\n      mstore\n      0x20\n      add\n      0x00\n      keccak256\n        /* \"remixd_practice/game.sol\":3574:3594  rooms[roomNum].taker */\n      0x04\n      add\n        /* \"remixd_practice/game.sol\":3574:3599  rooms[roomNum].taker.addr */\n      0x00\n      add\n      0x01\n      swap1\n      sload\n      swap1\n      0x0100\n      exp\n      swap1\n      div\n      0xffffffffffffffffffffffffffffffffffffffff\n      and\n        /* \"remixd_practice/game.sol\":3574:3608  rooms[roomNum].taker.addr.transfer */\n      0xffffffffffffffffffffffffffffffffffffffff\n      and\n        /* \"remixd_practice/game.sol\":3574:3634  rooms[roomNum].taker.addr.transfer(rooms[roomNum].betAmount) */\n      0x08fc\n        /* \"remixd_practice/game.sol\":3609:3614  rooms */\n      0x00\n        /* \"remixd_practice/game.sol\":3609:3623  rooms[roomNum] */\n      dup1\n        /* \"remixd_practice/game.sol\":3615:3622  roomNum */\n      dup7\n        /* \"remixd_practice/game.sol\":3609:3623  rooms[roomNum] */\n      dup2\n      mstore\n      0x20\n      add\n      swap1\n      dup2\n      mstore\n      0x20\n      add\n      0x00\n      keccak256\n        /* \"remixd_practice/game.sol\":3609:3633  rooms[roomNum].betAmount */\n      0x00\n      add\n      sload\n        /* \"remixd_practice/game.sol\":3574:3634  rooms[roomNum].taker.addr.transfer(rooms[roomNum].betAmount) */\n      swap1\n      dup2\n      iszero\n      mul\n      swap1\n      mload(0x40)\n      0x00\n      mload(0x40)\n      dup1\n      dup4\n      sub\n      dup2\n      dup6\n      dup9\n      dup9\n      call\n      swap4\n      pop\n      pop\n      pop\n      pop\n      iszero\n      dup1\n      iszero\n      tag_127\n      jumpi\n      returndatasize\n      0x00\n      dup1\n      returndatacopy\n      revert(0x00, returndatasize)\n    tag_127:\n      pop\n        /* \"remixd_practice/game.sol\":3490:3860  if (rooms[roomNum].taker.playerStatus == PlayerStatus.STATUS_WIN) {... */\n      jump(tag_128)\n    tag_125:\n        /* \"remixd_practice/game.sol\":3673:3678  rooms */\n      0x00\n        /* \"remixd_practice/game.sol\":3673:3687  rooms[roomNum] */\n      dup1\n        /* \"remixd_practice/game.sol\":3679:3686  roomNum */\n      dup5\n        /* \"remixd_practice/game.sol\":3673:3687  rooms[roomNum] */\n      dup2\n      mstore\n      0x20\n      add\n      swap1\n      dup2\n      mstore\n      0x20\n      add\n      0x00\n      keccak256\n        /* \"remixd_practice/game.sol\":3673:3698  rooms[roomNum].originator */\n      0x02\n      add\n        /* \"remixd_practice/game.sol\":3673:3703  rooms[roomNum].originator.addr */\n      0x00\n      add\n      0x01\n      swap1\n      sload\n      swap1\n      0x0100\n      exp\n      swap1\n      div\n      0xffffffffffffffffffffffffffffffffffffffff\n      and\n        /* \"remixd_practice/game.sol\":3673:3712  rooms[roomNum].originator.addr.transfer */\n      0xffffffffffffffffffffffffffffffffffffffff\n      and\n        /* \"remixd_practice/game.sol\":3673:3755  rooms[roomNum].originator.addr.transfer(rooms[roomNum].originator.playerBetAmount) */\n      0x08fc\n        /* \"remixd_practice/game.sol\":3713:3718  rooms */\n      0x00\n        /* \"remixd_practice/game.sol\":3713:3727  rooms[roomNum] */\n      dup1\n        /* \"remixd_practice/game.sol\":3719:3726  roomNum */\n      dup7\n        /* \"remixd_practice/game.sol\":3713:3727  rooms[roomNum] */\n      dup2\n      mstore\n      0x20\n      add\n      swap1\n      dup2\n      mstore\n      0x20\n      add\n      0x00\n      keccak256\n        /* \"remixd_practice/game.sol\":3713:3738  rooms[roomNum].originator */\n      0x02\n      add\n        /* \"remixd_practice/game.sol\":3713:3754  rooms[roomNum].originator.playerBetAmount */\n      0x01\n      add\n      sload\n        /* \"remixd_practice/game.sol\":3673:3755  rooms[roomNum].originator.addr.transfer(rooms[roomNum].originator.playerBetAmount) */\n      swap1\n      dup2\n      iszero\n      mul\n      swap1\n      mload(0x40)\n      0x00\n      mload(0x40)\n      dup1\n      dup4\n      sub\n      dup2\n      dup6\n      dup9\n      dup9\n      call\n      swap4\n      pop\n      pop\n      pop\n      pop\n      iszero\n      dup1\n      iszero\n      tag_130\n      jumpi\n      returndatasize\n      0x00\n      dup1\n      returndatacopy\n      revert(0x00, returndatasize)\n    tag_130:\n      pop\n        /* \"remixd_practice/game.sol\":3773:3778  rooms */\n      0x00\n        /* \"remixd_practice/game.sol\":3773:3787  rooms[roomNum] */\n      dup1\n        /* \"remixd_practice/game.sol\":3779:3786  roomNum */\n      dup5\n        /* \"remixd_practice/game.sol\":3773:3787  rooms[roomNum] */\n      dup2\n      mstore\n      0x20\n      add\n      swap1\n      dup2\n      mstore\n      0x20\n      add\n      0x00\n      keccak256\n        /* \"remixd_practice/game.sol\":3773:3793  rooms[roomNum].taker */\n      0x04\n      add\n        /* \"remixd_practice/game.sol\":3773:3798  rooms[roomNum].taker.addr */\n      0x00\n      add\n      0x01\n      swap1\n      sload\n      swap1\n      0x0100\n      exp\n      swap1\n      div\n      0xffffffffffffffffffffffffffffffffffffffff\n      and\n        /* \"remixd_practice/game.sol\":3773:3807  rooms[roomNum].taker.addr.transfer */\n      0xffffffffffffffffffffffffffffffffffffffff\n      and\n        /* \"remixd_practice/game.sol\":3773:3845  rooms[roomNum].taker.addr.transfer(rooms[roomNum].taker.playerBetAmount) */\n      0x08fc\n        /* \"remixd_practice/game.sol\":3808:3813  rooms */\n      0x00\n        /* \"remixd_practice/game.sol\":3808:3822  rooms[roomNum] */\n      dup1\n        /* \"remixd_practice/game.sol\":3814:3821  roomNum */\n      dup7\n        /* \"remixd_practice/game.sol\":3808:3822  rooms[roomNum] */\n      dup2\n      mstore\n      0x20\n      add\n      swap1\n      dup2\n      mstore\n      0x20\n      add\n      0x00\n      keccak256\n        /* \"remixd_practice/game.sol\":3808:3828  rooms[roomNum].taker */\n      0x04\n      add\n        /* \"remixd_practice/game.sol\":3808:3844  rooms[roomNum].taker.playerBetAmount */\n      0x01\n      add\n      sload\n        /* \"remixd_practice/game.sol\":3773:3845  rooms[roomNum].taker.addr.transfer(rooms[roomNum].taker.playerBetAmount) */\n      swap1\n      dup2\n      iszero\n      mul\n      swap1\n      mload(0x40)\n      0x00\n      mload(0x40)\n      dup1\n      dup4\n      sub\n      dup2\n      dup6\n      dup9\n      dup9\n      call\n      swap4\n      pop\n      pop\n      pop\n      pop\n      iszero\n      dup1\n      iszero\n      tag_132\n      jumpi\n      returndatasize\n      0x00\n      dup1\n      returndatacopy\n      revert(0x00, returndatasize)\n    tag_132:\n      pop\n        /* \"remixd_practice/game.sol\":3490:3860  if (rooms[roomNum].taker.playerStatus == PlayerStatus.STATUS_WIN) {... */\n    tag_128:\n        /* \"remixd_practice/game.sol\":3315:3860  if (rooms[roomNum].originator.playerStatus == PlayerStatus.STATUS_WIN) {... */\n    tag_120:\n        /* \"remixd_practice/game.sol\":2967:3870  if (rooms[roomNum].originator.playerStatus == PlayerStatus.STATUS_TIE && rooms[roomNum].taker.playerStatus == PlayerStatus.STATUS_TIE) {... */\n    tag_112:\n        /* \"remixd_practice/game.sol\":3908:3934  GameStatus.STATUS_COMPLETE */\n      0x02\n        /* \"remixd_practice/game.sol\":3880:3885  rooms */\n      0x00\n        /* \"remixd_practice/game.sol\":3880:3894  rooms[roomNum] */\n      dup1\n        /* \"remixd_practice/game.sol\":3886:3893  roomNum */\n      dup6\n        /* \"remixd_practice/game.sol\":3880:3894  rooms[roomNum] */\n      dup2\n      mstore\n      0x20\n      add\n      swap1\n      dup2\n      mstore\n      0x20\n      add\n      0x00\n      keccak256\n        /* \"remixd_practice/game.sol\":3880:3905  rooms[roomNum].gameStatus */\n      0x01\n      add\n      0x00\n        /* \"remixd_practice/game.sol\":3880:3934  rooms[roomNum].gameStatus = GameStatus.STATUS_COMPLETE */\n      0x0100\n      exp\n      dup2\n      sload\n      dup2\n      0xff\n      mul\n      not\n      and\n      swap1\n      dup4\n      0x03\n      dup2\n      gt\n      iszero\n      tag_133\n      jumpi\n      tag_134\n      tag_28\n      jump\t// in\n    tag_134:\n    tag_133:\n      mul\n      or\n      swap1\n      sstore\n      pop\n        /* \"remixd_practice/game.sol\":2882:3941  function payout(uint roomNum) public payable isPlayer(roomNum, msg.sender) {... */\n      pop\n      pop\n      pop\n      jump\t// out\n        /* \"remixd_practice/game.sol\":3951:4948  function compareHands(uint roomNum) private{... */\n    tag_93:\n        /* \"remixd_practice/game.sol\":4004:4020  uint8 originator */\n      0x00\n        /* \"remixd_practice/game.sol\":4029:4034  rooms */\n      dup1\n        /* \"remixd_practice/game.sol\":4029:4043  rooms[roomNum] */\n      0x00\n        /* \"remixd_practice/game.sol\":4035:4042  roomNum */\n      dup4\n        /* \"remixd_practice/game.sol\":4029:4043  rooms[roomNum] */\n      dup2\n      mstore\n      0x20\n      add\n      swap1\n      dup2\n      mstore\n      0x20\n      add\n      0x00\n      keccak256\n        /* \"remixd_practice/game.sol\":4029:4054  rooms[roomNum].originator */\n      0x02\n      add\n        /* \"remixd_practice/game.sol\":4029:4059  rooms[roomNum].originator.hand */\n      0x00\n      add\n      0x00\n      swap1\n      sload\n      swap1\n      0x0100\n      exp\n      swap1\n      div\n      0xff\n      and\n        /* \"remixd_practice/game.sol\":4023:4060  uint8(rooms[roomNum].originator.hand) */\n      0x02\n      dup2\n      gt\n      iszero\n      tag_136\n      jumpi\n      tag_137\n      tag_28\n      jump\t// in\n    tag_137:\n    tag_136:\n        /* \"remixd_practice/game.sol\":4004:4060  uint8 originator = uint8(rooms[roomNum].originator.hand) */\n      swap1\n      pop\n        /* \"remixd_practice/game.sol\":4070:4081  uint8 taker */\n      0x00\n        /* \"remixd_practice/game.sol\":4090:4095  rooms */\n      dup1\n        /* \"remixd_practice/game.sol\":4090:4104  rooms[roomNum] */\n      0x00\n        /* \"remixd_practice/game.sol\":4096:4103  roomNum */\n      dup5\n        /* \"remixd_practice/game.sol\":4090:4104  rooms[roomNum] */\n      dup2\n      mstore\n      0x20\n      add\n      swap1\n      dup2\n      mstore\n      0x20\n      add\n      0x00\n      keccak256\n        /* \"remixd_practice/game.sol\":4090:4110  rooms[roomNum].taker */\n      0x04\n      add\n        /* \"remixd_practice/game.sol\":4090:4115  rooms[roomNum].taker.hand */\n      0x00\n      add\n      0x00\n      swap1\n      sload\n      swap1\n      0x0100\n      exp\n      swap1\n      div\n      0xff\n      and\n        /* \"remixd_practice/game.sol\":4084:4116  uint8(rooms[roomNum].taker.hand) */\n      0x02\n      dup2\n      gt\n      iszero\n      tag_138\n      jumpi\n      tag_139\n      tag_28\n      jump\t// in\n    tag_139:\n    tag_138:\n        /* \"remixd_practice/game.sol\":4070:4116  uint8 taker = uint8(rooms[roomNum].taker.hand) */\n      swap1\n      pop\n        /* \"remixd_practice/game.sol\":4163:4188  GameStatus.STATUS_STARTED */\n      0x01\n        /* \"remixd_practice/game.sol\":4135:4140  rooms */\n      0x00\n        /* \"remixd_practice/game.sol\":4135:4149  rooms[roomNum] */\n      dup1\n        /* \"remixd_practice/game.sol\":4141:4148  roomNum */\n      dup6\n        /* \"remixd_practice/game.sol\":4135:4149  rooms[roomNum] */\n      dup2\n      mstore\n      0x20\n      add\n      swap1\n      dup2\n      mstore\n      0x20\n      add\n      0x00\n      keccak256\n        /* \"remixd_practice/game.sol\":4135:4160  rooms[roomNum].gameStatus */\n      0x01\n      add\n      0x00\n        /* \"remixd_practice/game.sol\":4135:4188  rooms[roomNum].gameStatus = GameStatus.STATUS_STARTED */\n      0x0100\n      exp\n      dup2\n      sload\n      dup2\n      0xff\n      mul\n      not\n      and\n      swap1\n      dup4\n      0x03\n      dup2\n      gt\n      iszero\n      tag_140\n      jumpi\n      tag_141\n      tag_28\n      jump\t// in\n    tag_141:\n    tag_140:\n      mul\n      or\n      swap1\n      sstore\n      pop\n        /* \"remixd_practice/game.sol\":4220:4230  originator */\n      dup2\n        /* \"remixd_practice/game.sol\":4211:4230  taker == originator */\n      0xff\n      and\n        /* \"remixd_practice/game.sol\":4211:4216  taker */\n      dup2\n        /* \"remixd_practice/game.sol\":4211:4230  taker == originator */\n      0xff\n      and\n      eq\n        /* \"remixd_practice/game.sol\":4207:4934  if (taker == originator){ //draw... */\n      iszero\n      tag_142\n      jumpi\n        /* \"remixd_practice/game.sol\":4293:4316  PlayerStatus.STATUS_TIE */\n      0x02\n        /* \"remixd_practice/game.sol\":4252:4257  rooms */\n      0x00\n        /* \"remixd_practice/game.sol\":4252:4266  rooms[roomNum] */\n      dup1\n        /* \"remixd_practice/game.sol\":4258:4265  roomNum */\n      dup6\n        /* \"remixd_practice/game.sol\":4252:4266  rooms[roomNum] */\n      dup2\n      mstore\n      0x20\n      add\n      swap1\n      dup2\n      mstore\n      0x20\n      add\n      0x00\n      keccak256\n        /* \"remixd_practice/game.sol\":4252:4277  rooms[roomNum].originator */\n      0x02\n      add\n        /* \"remixd_practice/game.sol\":4252:4290  rooms[roomNum].originator.playerStatus */\n      0x00\n      add\n      0x15\n        /* \"remixd_practice/game.sol\":4252:4316  rooms[roomNum].originator.playerStatus = PlayerStatus.STATUS_TIE */\n      0x0100\n      exp\n      dup2\n      sload\n      dup2\n      0xff\n      mul\n      not\n      and\n      swap1\n      dup4\n      0x03\n      dup2\n      gt\n      iszero\n      tag_143\n      jumpi\n      tag_144\n      tag_28\n      jump\t// in\n    tag_144:\n    tag_143:\n      mul\n      or\n      swap1\n      sstore\n      pop\n        /* \"remixd_practice/game.sol\":4366:4389  PlayerStatus.STATUS_TIE */\n      0x02\n        /* \"remixd_practice/game.sol\":4330:4335  rooms */\n      0x00\n        /* \"remixd_practice/game.sol\":4330:4344  rooms[roomNum] */\n      dup1\n        /* \"remixd_practice/game.sol\":4336:4343  roomNum */\n      dup6\n        /* \"remixd_practice/game.sol\":4330:4344  rooms[roomNum] */\n      dup2\n      mstore\n      0x20\n      add\n      swap1\n      dup2\n      mstore\n      0x20\n      add\n      0x00\n      keccak256\n        /* \"remixd_practice/game.sol\":4330:4350  rooms[roomNum].taker */\n      0x04\n      add\n        /* \"remixd_practice/game.sol\":4330:4363  rooms[roomNum].taker.playerStatus */\n      0x00\n      add\n      0x15\n        /* \"remixd_practice/game.sol\":4330:4389  rooms[roomNum].taker.playerStatus = PlayerStatus.STATUS_TIE */\n      0x0100\n      exp\n      dup2\n      sload\n      dup2\n      0xff\n      mul\n      not\n      and\n      swap1\n      dup4\n      0x03\n      dup2\n      gt\n      iszero\n      tag_145\n      jumpi\n      tag_146\n      tag_28\n      jump\t// in\n    tag_146:\n    tag_145:\n      mul\n      or\n      swap1\n      sstore\n      pop\n        /* \"remixd_practice/game.sol\":4207:4934  if (taker == originator){ //draw... */\n      jump(tag_147)\n    tag_142:\n        /* \"remixd_practice/game.sol\":4449:4459  originator */\n      dup2\n        /* \"remixd_practice/game.sol\":4431:4459  (taker +1) % 3 == originator */\n      0xff\n      and\n        /* \"remixd_practice/game.sol\":4444:4445  3 */\n      0x03\n        /* \"remixd_practice/game.sol\":4439:4440  1 */\n      0x01\n        /* \"remixd_practice/game.sol\":4432:4437  taker */\n      dup4\n        /* \"remixd_practice/game.sol\":4432:4440  taker +1 */\n      tag_148\n      swap2\n      swap1\n      tag_149\n      jump\t// in\n    tag_148:\n        /* \"remixd_practice/game.sol\":4431:4445  (taker +1) % 3 */\n      tag_150\n      swap2\n      swap1\n      tag_151\n      jump\t// in\n    tag_150:\n        /* \"remixd_practice/game.sol\":4431:4459  (taker +1) % 3 == originator */\n      0xff\n      and\n      eq\n        /* \"remixd_practice/game.sol\":4427:4934  if ((taker +1) % 3 == originator) { // originator wins... */\n      iszero\n      tag_152\n      jumpi\n        /* \"remixd_practice/game.sol\":4535:4558  PlayerStatus.STATUS_WIN */\n      0x00\n        /* \"remixd_practice/game.sol\":4494:4499  rooms */\n      dup1\n        /* \"remixd_practice/game.sol\":4494:4508  rooms[roomNum] */\n      0x00\n        /* \"remixd_practice/game.sol\":4500:4507  roomNum */\n      dup6\n        /* \"remixd_practice/game.sol\":4494:4508  rooms[roomNum] */\n      dup2\n      mstore\n      0x20\n      add\n      swap1\n      dup2\n      mstore\n      0x20\n      add\n      0x00\n      keccak256\n        /* \"remixd_practice/game.sol\":4494:4519  rooms[roomNum].originator */\n      0x02\n      add\n        /* \"remixd_practice/game.sol\":4494:4532  rooms[roomNum].originator.playerStatus */\n      0x00\n      add\n      0x15\n        /* \"remixd_practice/game.sol\":4494:4558  rooms[roomNum].originator.playerStatus = PlayerStatus.STATUS_WIN */\n      0x0100\n      exp\n      dup2\n      sload\n      dup2\n      0xff\n      mul\n      not\n      and\n      swap1\n      dup4\n      0x03\n      dup2\n      gt\n      iszero\n      tag_153\n      jumpi\n      tag_154\n      tag_28\n      jump\t// in\n    tag_154:\n    tag_153:\n      mul\n      or\n      swap1\n      sstore\n      pop\n        /* \"remixd_practice/game.sol\":4608:4632  PlayerStatus.STATUS_LOSE */\n      0x01\n        /* \"remixd_practice/game.sol\":4572:4577  rooms */\n      0x00\n        /* \"remixd_practice/game.sol\":4572:4586  rooms[roomNum] */\n      dup1\n        /* \"remixd_practice/game.sol\":4578:4585  roomNum */\n      dup6\n        /* \"remixd_practice/game.sol\":4572:4586  rooms[roomNum] */\n      dup2\n      mstore\n      0x20\n      add\n      swap1\n      dup2\n      mstore\n      0x20\n      add\n      0x00\n      keccak256\n        /* \"remixd_practice/game.sol\":4572:4592  rooms[roomNum].taker */\n      0x04\n      add\n        /* \"remixd_practice/game.sol\":4572:4605  rooms[roomNum].taker.playerStatus */\n      0x00\n      add\n      0x15\n        /* \"remixd_practice/game.sol\":4572:4632  rooms[roomNum].taker.playerStatus = PlayerStatus.STATUS_LOSE */\n      0x0100\n      exp\n      dup2\n      sload\n      dup2\n      0xff\n      mul\n      not\n      and\n      swap1\n      dup4\n      0x03\n      dup2\n      gt\n      iszero\n      tag_155\n      jumpi\n      tag_156\n      tag_28\n      jump\t// in\n    tag_156:\n    tag_155:\n      mul\n      or\n      swap1\n      sstore\n      pop\n        /* \"remixd_practice/game.sol\":4427:4934  if ((taker +1) % 3 == originator) { // originator wins... */\n      jump(tag_157)\n    tag_152:\n        /* \"remixd_practice/game.sol\":4683:4688  taker */\n      dup1\n        /* \"remixd_practice/game.sol\":4661:4688  (originator + 1)%3 == taker */\n      0xff\n      and\n        /* \"remixd_practice/game.sol\":4678:4679  3 */\n      0x03\n        /* \"remixd_practice/game.sol\":4675:4676  1 */\n      0x01\n        /* \"remixd_practice/game.sol\":4662:4672  originator */\n      dup5\n        /* \"remixd_practice/game.sol\":4662:4676  originator + 1 */\n      tag_158\n      swap2\n      swap1\n      tag_149\n      jump\t// in\n    tag_158:\n        /* \"remixd_practice/game.sol\":4661:4679  (originator + 1)%3 */\n      tag_159\n      swap2\n      swap1\n      tag_151\n      jump\t// in\n    tag_159:\n        /* \"remixd_practice/game.sol\":4661:4688  (originator + 1)%3 == taker */\n      0xff\n      and\n      eq\n        /* \"remixd_practice/game.sol\":4657:4934  if ((originator + 1)%3 == taker){... */\n      iszero\n      tag_160\n      jumpi\n        /* \"remixd_practice/game.sol\":4744:4768  PlayerStatus.STATUS_LOSE */\n      0x01\n        /* \"remixd_practice/game.sol\":4703:4708  rooms */\n      0x00\n        /* \"remixd_practice/game.sol\":4703:4717  rooms[roomNum] */\n      dup1\n        /* \"remixd_practice/game.sol\":4709:4716  roomNum */\n      dup6\n        /* \"remixd_practice/game.sol\":4703:4717  rooms[roomNum] */\n      dup2\n      mstore\n      0x20\n      add\n      swap1\n      dup2\n      mstore\n      0x20\n      add\n      0x00\n      keccak256\n        /* \"remixd_practice/game.sol\":4703:4728  rooms[roomNum].originator */\n      0x02\n      add\n        /* \"remixd_practice/game.sol\":4703:4741  rooms[roomNum].originator.playerStatus */\n      0x00\n      add\n      0x15\n        /* \"remixd_practice/game.sol\":4703:4768  rooms[roomNum].originator.playerStatus = PlayerStatus.STATUS_LOSE */\n      0x0100\n      exp\n      dup2\n      sload\n      dup2\n      0xff\n      mul\n      not\n      and\n      swap1\n      dup4\n      0x03\n      dup2\n      gt\n      iszero\n      tag_161\n      jumpi\n      tag_162\n      tag_28\n      jump\t// in\n    tag_162:\n    tag_161:\n      mul\n      or\n      swap1\n      sstore\n      pop\n        /* \"remixd_practice/game.sol\":4818:4841  PlayerStatus.STATUS_WIN */\n      0x00\n        /* \"remixd_practice/game.sol\":4782:4787  rooms */\n      dup1\n        /* \"remixd_practice/game.sol\":4782:4796  rooms[roomNum] */\n      0x00\n        /* \"remixd_practice/game.sol\":4788:4795  roomNum */\n      dup6\n        /* \"remixd_practice/game.sol\":4782:4796  rooms[roomNum] */\n      dup2\n      mstore\n      0x20\n      add\n      swap1\n      dup2\n      mstore\n      0x20\n      add\n      0x00\n      keccak256\n        /* \"remixd_practice/game.sol\":4782:4802  rooms[roomNum].taker */\n      0x04\n      add\n        /* \"remixd_practice/game.sol\":4782:4815  rooms[roomNum].taker.playerStatus */\n      0x00\n      add\n      0x15\n        /* \"remixd_practice/game.sol\":4782:4841  rooms[roomNum].taker.playerStatus = PlayerStatus.STATUS_WIN */\n      0x0100\n      exp\n      dup2\n      sload\n      dup2\n      0xff\n      mul\n      not\n      and\n      swap1\n      dup4\n      0x03\n      dup2\n      gt\n      iszero\n      tag_163\n      jumpi\n      tag_164\n      tag_28\n      jump\t// in\n    tag_164:\n    tag_163:\n      mul\n      or\n      swap1\n      sstore\n      pop\n        /* \"remixd_practice/game.sol\":4657:4934  if ((originator + 1)%3 == taker){... */\n      jump(tag_165)\n    tag_160:\n        /* \"remixd_practice/game.sol\":4900:4923  GameStatus.STATUS_ERROR */\n      0x03\n        /* \"remixd_practice/game.sol\":4872:4877  rooms */\n      0x00\n        /* \"remixd_practice/game.sol\":4872:4886  rooms[roomNum] */\n      dup1\n        /* \"remixd_practice/game.sol\":4878:4885  roomNum */\n      dup6\n        /* \"remixd_practice/game.sol\":4872:4886  rooms[roomNum] */\n      dup2\n      mstore\n      0x20\n      add\n      swap1\n      dup2\n      mstore\n      0x20\n      add\n      0x00\n      keccak256\n        /* \"remixd_practice/game.sol\":4872:4897  rooms[roomNum].gameStatus */\n      0x01\n      add\n      0x00\n        /* \"remixd_practice/game.sol\":4872:4923  rooms[roomNum].gameStatus = GameStatus.STATUS_ERROR */\n      0x0100\n      exp\n      dup2\n      sload\n      dup2\n      0xff\n      mul\n      not\n      and\n      swap1\n      dup4\n      0x03\n      dup2\n      gt\n      iszero\n      tag_166\n      jumpi\n      tag_167\n      tag_28\n      jump\t// in\n    tag_167:\n    tag_166:\n      mul\n      or\n      swap1\n      sstore\n      pop\n        /* \"remixd_practice/game.sol\":4657:4934  if ((originator + 1)%3 == taker){... */\n    tag_165:\n        /* \"remixd_practice/game.sol\":4427:4934  if ((taker +1) % 3 == originator) { // originator wins... */\n    tag_157:\n        /* \"remixd_practice/game.sol\":4207:4934  if (taker == originator){ //draw... */\n    tag_147:\n        /* \"remixd_practice/game.sol\":3994:4948  {... */\n      pop\n      pop\n        /* \"remixd_practice/game.sol\":3951:4948  function compareHands(uint roomNum) private{... */\n      pop\n      jump\t// out\n        /* \"#utility.yul\":7:158   */\n    tag_169:\n        /* \"#utility.yul\":59:64   */\n      0x00\n        /* \"#utility.yul\":97:103   */\n      dup2\n        /* \"#utility.yul\":84:104   */\n      calldataload\n        /* \"#utility.yul\":75:104   */\n      swap1\n      pop\n        /* \"#utility.yul\":113:152   */\n      tag_171\n        /* \"#utility.yul\":146:151   */\n      dup2\n        /* \"#utility.yul\":113:152   */\n      tag_172\n      jump\t// in\n    tag_171:\n        /* \"#utility.yul\":7:158   */\n      swap3\n      swap2\n      pop\n      pop\n      jump\t// out\n        /* \"#utility.yul\":164:303   */\n    tag_173:\n        /* \"#utility.yul\":210:215   */\n      0x00\n        /* \"#utility.yul\":248:254   */\n      dup2\n        /* \"#utility.yul\":235:255   */\n      calldataload\n        /* \"#utility.yul\":226:255   */\n      swap1\n      pop\n        /* \"#utility.yul\":264:297   */\n      tag_175\n        /* \"#utility.yul\":291:296   */\n      dup2\n        /* \"#utility.yul\":264:297   */\n      tag_176\n      jump\t// in\n    tag_175:\n        /* \"#utility.yul\":164:303   */\n      swap3\n      swap2\n      pop\n      pop\n      jump\t// out\n        /* \"#utility.yul\":309:650   */\n    tag_8:\n        /* \"#utility.yul\":374:380   */\n      0x00\n        /* \"#utility.yul\":423:425   */\n      0x20\n        /* \"#utility.yul\":411:420   */\n      dup3\n        /* \"#utility.yul\":402:409   */\n      dup5\n        /* \"#utility.yul\":398:421   */\n      sub\n        /* \"#utility.yul\":394:426   */\n      slt\n        /* \"#utility.yul\":391:510   */\n      iszero\n      tag_178\n      jumpi\n        /* \"#utility.yul\":429:508   */\n      tag_179\n      tag_180\n      jump\t// in\n    tag_179:\n        /* \"#utility.yul\":391:510   */\n    tag_178:\n        /* \"#utility.yul\":549:550   */\n      0x00\n        /* \"#utility.yul\":574:633   */\n      tag_181\n        /* \"#utility.yul\":625:632   */\n      dup5\n        /* \"#utility.yul\":616:622   */\n      dup3\n        /* \"#utility.yul\":605:614   */\n      dup6\n        /* \"#utility.yul\":601:623   */\n      add\n        /* \"#utility.yul\":574:633   */\n      tag_169\n      jump\t// in\n    tag_181:\n        /* \"#utility.yul\":564:633   */\n      swap2\n      pop\n        /* \"#utility.yul\":520:643   */\n      pop\n        /* \"#utility.yul\":309:650   */\n      swap3\n      swap2\n      pop\n      pop\n      jump\t// out\n        /* \"#utility.yul\":656:985   */\n    tag_15:\n        /* \"#utility.yul\":715:721   */\n      0x00\n        /* \"#utility.yul\":764:766   */\n      0x20\n        /* \"#utility.yul\":752:761   */\n      dup3\n        /* \"#utility.yul\":743:750   */\n      dup5\n        /* \"#utility.yul\":739:762   */\n      sub\n        /* \"#utility.yul\":735:767   */\n      slt\n        /* \"#utility.yul\":732:851   */\n      iszero\n      tag_183\n      jumpi\n        /* \"#utility.yul\":770:849   */\n      tag_184\n      tag_180\n      jump\t// in\n    tag_184:\n        /* \"#utility.yul\":732:851   */\n    tag_183:\n        /* \"#utility.yul\":890:891   */\n      0x00\n        /* \"#utility.yul\":915:968   */\n      tag_185\n        /* \"#utility.yul\":960:967   */\n      dup5\n        /* \"#utility.yul\":951:957   */\n      dup3\n        /* \"#utility.yul\":940:949   */\n      dup6\n        /* \"#utility.yul\":936:958   */\n      add\n        /* \"#utility.yul\":915:968   */\n      tag_173\n      jump\t// in\n    tag_185:\n        /* \"#utility.yul\":905:968   */\n      swap2\n      pop\n        /* \"#utility.yul\":861:978   */\n      pop\n        /* \"#utility.yul\":656:985   */\n      swap3\n      swap2\n      pop\n      pop\n      jump\t// out\n        /* \"#utility.yul\":991:1477   */\n    tag_20:\n        /* \"#utility.yul\":1065:1071   */\n      0x00\n        /* \"#utility.yul\":1073:1079   */\n      dup1\n        /* \"#utility.yul\":1122:1124   */\n      0x40\n        /* \"#utility.yul\":1110:1119   */\n      dup4\n        /* \"#utility.yul\":1101:1108   */\n      dup6\n        /* \"#utility.yul\":1097:1120   */\n      sub\n        /* \"#utility.yul\":1093:1125   */\n      slt\n        /* \"#utility.yul\":1090:1209   */\n      iszero\n      tag_187\n      jumpi\n        /* \"#utility.yul\":1128:1207   */\n      tag_188\n      tag_180\n      jump\t// in\n    tag_188:\n        /* \"#utility.yul\":1090:1209   */\n    tag_187:\n        /* \"#utility.yul\":1248:1249   */\n      0x00\n        /* \"#utility.yul\":1273:1326   */\n      tag_189\n        /* \"#utility.yul\":1318:1325   */\n      dup6\n        /* \"#utility.yul\":1309:1315   */\n      dup3\n        /* \"#utility.yul\":1298:1307   */\n      dup7\n        /* \"#utility.yul\":1294:1316   */\n      add\n        /* \"#utility.yul\":1273:1326   */\n      tag_173\n      jump\t// in\n    tag_189:\n        /* \"#utility.yul\":1263:1326   */\n      swap3\n      pop\n        /* \"#utility.yul\":1219:1336   */\n      pop\n        /* \"#utility.yul\":1375:1377   */\n      0x20\n        /* \"#utility.yul\":1401:1460   */\n      tag_190\n        /* \"#utility.yul\":1452:1459   */\n      dup6\n        /* \"#utility.yul\":1443:1449   */\n      dup3\n        /* \"#utility.yul\":1432:1441   */\n      dup7\n        /* \"#utility.yul\":1428:1450   */\n      add\n        /* \"#utility.yul\":1401:1460   */\n      tag_169\n      jump\t// in\n    tag_190:\n        /* \"#utility.yul\":1391:1460   */\n      swap2\n      pop\n        /* \"#utility.yul\":1346:1470   */\n      pop\n        /* \"#utility.yul\":991:1477   */\n      swap3\n      pop\n      swap3\n      swap1\n      pop\n      jump\t// out\n        /* \"#utility.yul\":1483:1601   */\n    tag_191:\n        /* \"#utility.yul\":1570:1594   */\n      tag_193\n        /* \"#utility.yul\":1588:1593   */\n      dup2\n        /* \"#utility.yul\":1570:1594   */\n      tag_194\n      jump\t// in\n    tag_193:\n        /* \"#utility.yul\":1565:1568   */\n      dup3\n        /* \"#utility.yul\":1558:1595   */\n      mstore\n        /* \"#utility.yul\":1483:1601   */\n      pop\n      pop\n      jump\t// out\n        /* \"#utility.yul\":1607:1829   */\n    tag_11:\n        /* \"#utility.yul\":1700:1704   */\n      0x00\n        /* \"#utility.yul\":1738:1740   */\n      0x20\n        /* \"#utility.yul\":1727:1736   */\n      dup3\n        /* \"#utility.yul\":1723:1741   */\n      add\n        /* \"#utility.yul\":1715:1741   */\n      swap1\n      pop\n        /* \"#utility.yul\":1751:1822   */\n      tag_196\n        /* \"#utility.yul\":1819:1820   */\n      0x00\n        /* \"#utility.yul\":1808:1817   */\n      dup4\n        /* \"#utility.yul\":1804:1821   */\n      add\n        /* \"#utility.yul\":1795:1801   */\n      dup5\n        /* \"#utility.yul\":1751:1822   */\n      tag_191\n      jump\t// in\n    tag_196:\n        /* \"#utility.yul\":1607:1829   */\n      swap3\n      swap2\n      pop\n      pop\n      jump\t// out\n        /* \"#utility.yul\":1916:2221   */\n    tag_64:\n        /* \"#utility.yul\":1956:1959   */\n      0x00\n        /* \"#utility.yul\":1975:1995   */\n      tag_200\n        /* \"#utility.yul\":1993:1994   */\n      dup3\n        /* \"#utility.yul\":1975:1995   */\n      tag_194\n      jump\t// in\n    tag_200:\n        /* \"#utility.yul\":1970:1995   */\n      swap2\n      pop\n        /* \"#utility.yul\":2009:2029   */\n      tag_201\n        /* \"#utility.yul\":2027:2028   */\n      dup4\n        /* \"#utility.yul\":2009:2029   */\n      tag_194\n      jump\t// in\n    tag_201:\n        /* \"#utility.yul\":2004:2029   */\n      swap3\n      pop\n        /* \"#utility.yul\":2163:2164   */\n      dup3\n        /* \"#utility.yul\":2095:2161   */\n      0xffffffffffffffffffffffffffffffffffffffffffffffffffffffffffffffff\n        /* \"#utility.yul\":2091:2165   */\n      sub\n        /* \"#utility.yul\":2088:2089   */\n      dup3\n        /* \"#utility.yul\":2085:2166   */\n      gt\n        /* \"#utility.yul\":2082:2189   */\n      iszero\n      tag_202\n      jumpi\n        /* \"#utility.yul\":2169:2187   */\n      tag_203\n      tag_204\n      jump\t// in\n    tag_203:\n        /* \"#utility.yul\":2082:2189   */\n    tag_202:\n        /* \"#utility.yul\":2213:2214   */\n      dup3\n        /* \"#utility.yul\":2210:2211   */\n      dup3\n        /* \"#utility.yul\":2206:2215   */\n      add\n        /* \"#utility.yul\":2199:2215   */\n      swap1\n      pop\n        /* \"#utility.yul\":1916:2221   */\n      swap3\n      swap2\n      pop\n      pop\n      jump\t// out\n        /* \"#utility.yul\":2227:2464   */\n    tag_149:\n        /* \"#utility.yul\":2265:2268   */\n      0x00\n        /* \"#utility.yul\":2284:2302   */\n      tag_206\n        /* \"#utility.yul\":2300:2301   */\n      dup3\n        /* \"#utility.yul\":2284:2302   */\n      tag_207\n      jump\t// in\n    tag_206:\n        /* \"#utility.yul\":2279:2302   */\n      swap2\n      pop\n        /* \"#utility.yul\":2316:2334   */\n      tag_208\n        /* \"#utility.yul\":2332:2333   */\n      dup4\n        /* \"#utility.yul\":2316:2334   */\n      tag_207\n      jump\t// in\n    tag_208:\n        /* \"#utility.yul\":2311:2334   */\n      swap3\n      pop\n        /* \"#utility.yul\":2406:2407   */\n      dup3\n        /* \"#utility.yul\":2400:2404   */\n      0xff\n        /* \"#utility.yul\":2396:2408   */\n      sub\n        /* \"#utility.yul\":2393:2394   */\n      dup3\n        /* \"#utility.yul\":2390:2409   */\n      gt\n        /* \"#utility.yul\":2387:2432   */\n      iszero\n      tag_209\n      jumpi\n        /* \"#utility.yul\":2412:2430   */\n      tag_210\n      tag_204\n      jump\t// in\n    tag_210:\n        /* \"#utility.yul\":2387:2432   */\n    tag_209:\n        /* \"#utility.yul\":2456:2457   */\n      dup3\n        /* \"#utility.yul\":2453:2454   */\n      dup3\n        /* \"#utility.yul\":2449:2458   */\n      add\n        /* \"#utility.yul\":2442:2458   */\n      swap1\n      pop\n        /* \"#utility.yul\":2227:2464   */\n      swap3\n      swap2\n      pop\n      pop\n      jump\t// out\n        /* \"#utility.yul\":2470:2547   */\n    tag_194:\n        /* \"#utility.yul\":2507:2514   */\n      0x00\n        /* \"#utility.yul\":2536:2541   */\n      dup2\n        /* \"#utility.yul\":2525:2541   */\n      swap1\n      pop\n        /* \"#utility.yul\":2470:2547   */\n      swap2\n      swap1\n      pop\n      jump\t// out\n        /* \"#utility.yul\":2553:2639   */\n    tag_207:\n        /* \"#utility.yul\":2588:2595   */\n      0x00\n        /* \"#utility.yul\":2628:2632   */\n      0xff\n        /* \"#utility.yul\":2621:2626   */\n      dup3\n        /* \"#utility.yul\":2617:2633   */\n      and\n        /* \"#utility.yul\":2606:2633   */\n      swap1\n      pop\n        /* \"#utility.yul\":2553:2639   */\n      swap2\n      swap1\n      pop\n      jump\t// out\n        /* \"#utility.yul\":2645:2815   */\n    tag_151:\n        /* \"#utility.yul\":2675:2676   */\n      0x00\n        /* \"#utility.yul\":2692:2710   */\n      tag_214\n        /* \"#utility.yul\":2708:2709   */\n      dup3\n        /* \"#utility.yul\":2692:2710   */\n      tag_207\n      jump\t// in\n    tag_214:\n        /* \"#utility.yul\":2687:2710   */\n      swap2\n      pop\n        /* \"#utility.yul\":2724:2742   */\n      tag_215\n        /* \"#utility.yul\":2740:2741   */\n      dup4\n        /* \"#utility.yul\":2724:2742   */\n      tag_207\n      jump\t// in\n    tag_215:\n        /* \"#utility.yul\":2719:2742   */\n      swap3\n      pop\n        /* \"#utility.yul\":2761:2762   */\n      dup3\n        /* \"#utility.yul\":2751:2786   */\n      tag_216\n      jumpi\n        /* \"#utility.yul\":2766:2784   */\n      tag_217\n      tag_218\n      jump\t// in\n    tag_217:\n        /* \"#utility.yul\":2751:2786   */\n    tag_216:\n        /* \"#utility.yul\":2807:2808   */\n      dup3\n        /* \"#utility.yul\":2804:2805   */\n      dup3\n        /* \"#utility.yul\":2800:2809   */\n      mod\n        /* \"#utility.yul\":2795:2809   */\n      swap1\n      pop\n        /* \"#utility.yul\":2645:2815   */\n      swap3\n      swap2\n      pop\n      pop\n      jump\t// out\n        /* \"#utility.yul\":2821:3001   */\n    tag_204:\n        /* \"#utility.yul\":2869:2946   */\n      0x4e487b7100000000000000000000000000000000000000000000000000000000\n        /* \"#utility.yul\":2866:2867   */\n      0x00\n        /* \"#utility.yul\":2859:2947   */\n      mstore\n        /* \"#utility.yul\":2966:2970   */\n      0x11\n        /* \"#utility.yul\":2963:2964   */\n      0x04\n        /* \"#utility.yul\":2956:2971   */\n      mstore\n        /* \"#utility.yul\":2990:2994   */\n      0x24\n        /* \"#utility.yul\":2987:2988   */\n      0x00\n        /* \"#utility.yul\":2980:2995   */\n      revert\n        /* \"#utility.yul\":3007:3187   */\n    tag_218:\n        /* \"#utility.yul\":3055:3132   */\n      0x4e487b7100000000000000000000000000000000000000000000000000000000\n        /* \"#utility.yul\":3052:3053   */\n      0x00\n        /* \"#utility.yul\":3045:3133   */\n      mstore\n        /* \"#utility.yul\":3152:3156   */\n      0x12\n        /* \"#utility.yul\":3149:3150   */\n      0x04\n        /* \"#utility.yul\":3142:3157   */\n      mstore\n        /* \"#utility.yul\":3176:3180   */\n      0x24\n        /* \"#utility.yul\":3173:3174   */\n      0x00\n        /* \"#utility.yul\":3166:3181   */\n      revert\n        /* \"#utility.yul\":3193:3373   */\n    tag_28:\n        /* \"#utility.yul\":3241:3318   */\n      0x4e487b7100000000000000000000000000000000000000000000000000000000\n        /* \"#utility.yul\":3238:3239   */\n      0x00\n        /* \"#utility.yul\":3231:3319   */\n      mstore\n        /* \"#utility.yul\":3338:3342   */\n      0x21\n        /* \"#utility.yul\":3335:3336   */\n      0x04\n        /* \"#utility.yul\":3328:3343   */\n      mstore\n        /* \"#utility.yul\":3362:3366   */\n      0x24\n        /* \"#utility.yul\":3359:3360   */\n      0x00\n        /* \"#utility.yul\":3352:3367   */\n      revert\n        /* \"#utility.yul\":3502:3619   */\n    tag_180:\n        /* \"#utility.yul\":3611:3612   */\n      0x00\n        /* \"#utility.yul\":3608:3609   */\n      dup1\n        /* \"#utility.yul\":3601:3613   */\n      revert\n        /* \"#utility.yul\":3625:3730   */\n    tag_172:\n        /* \"#utility.yul\":3704:3705   */\n      0x03\n        /* \"#utility.yul\":3697:3702   */\n      dup2\n        /* \"#utility.yul\":3694:3706   */\n      lt\n        /* \"#utility.yul\":3684:3724   */\n      tag_226\n      jumpi\n        /* \"#utility.yul\":3720:3721   */\n      0x00\n        /* \"#utility.yul\":3717:3718   */\n      dup1\n        /* \"#utility.yul\":3710:3722   */\n      revert\n        /* \"#utility.yul\":3684:3724   */\n    tag_226:\n        /* \"#utility.yul\":3625:3730   */\n      pop\n      jump\t// out\n        /* \"#utility.yul\":3736:3858   */\n    tag_176:\n        /* \"#utility.yul\":3809:3833   */\n      tag_228\n        /* \"#utility.yul\":3827:3832   */\n      dup2\n        /* \"#utility.yul\":3809:3833   */\n      tag_194\n      jump\t// in\n    tag_228:\n        /* \"#utility.yul\":3802:3807   */\n      dup2\n        /* \"#utility.yul\":3799:3834   */\n      eq\n        /* \"#utility.yul\":3789:3852   */\n      tag_229\n      jumpi\n        /* \"#utility.yul\":3848:3849   */\n      0x00\n        /* \"#utility.yul\":3845:3846   */\n      dup1\n        /* \"#utility.yul\":3838:3850   */\n      revert\n        /* \"#utility.yul\":3789:3852   */\n    tag_229:\n        /* \"#utility.yul\":3736:3858   */\n      pop\n      jump\t// out\n\n    auxdata: 0xa2646970667358221220931cecf9d5c9d97869e73c15fe78a9488ebb39d33e134d09c6931513bd07f64764736f6c63430008070033\n}\n",
				"bytecode": {
					"linkReferences": {},
					"object": "60806040526000600155611207806100186000396000f3fe60806040526004361061003f5760003560e01c80630f36f3b514610044578063393af7601461007457806379b15776146100b1578063e1152343146100cd575b600080fd5b61005e60048036038101906100599190610f7f565b6100e9565b60405161006b9190611028565b60405180910390f35b34801561008057600080fd5b5061009b60048036038101906100969190610fac565b61044c565b6040516100a89190611028565b60405180910390f35b6100cb60048036038101906100c69190610fd9565b61046b565b005b6100e760048036038101906100e29190610fac565b610666565b005b60008160006002811115610100576100ff611176565b5b81600281111561011357610112611176565b5b148061014357506001600281111561012e5761012d611176565b5b81600281111561014157610140611176565b5b145b80610171575060028081111561015c5761015b611176565b5b81600281111561016f5761016e611176565b5b145b61017a57600080fd5b60405180608001604052803481526020016000600381111561019f5761019e611176565b5b815260200160405180608001604052808660028111156101c2576101c1611176565b5b81526020013373ffffffffffffffffffffffffffffffffffffffff1681526020016003808111156101f6576101f5611176565b5b815260200134815250815260200160405180608001604052806000600281111561022357610222611176565b5b81526020013373ffffffffffffffffffffffffffffffffffffffff16815260200160038081111561025757610256611176565b5b8152602001600081525081525060008060015481526020019081526020016000206000820151816000015560208201518160010160006101000a81548160ff021916908360038111156102ad576102ac611176565b5b021790555060408201518160020160008201518160000160006101000a81548160ff021916908360028111156102e6576102e5611176565b5b021790555060208201518160000160016101000a81548173ffffffffffffffffffffffffffffffffffffffff021916908373ffffffffffffffffffffffffffffffffffffffff16021790555060408201518160000160156101000a81548160ff0219169083600381111561035d5761035c611176565b5b021790555060608201518160010155505060608201518160040160008201518160000160006101000a81548160ff021916908360028111156103a2576103a1611176565b5b021790555060208201518160000160016101000a81548173ffffffffffffffffffffffffffffffffffffffff021916908373ffffffffffffffffffffffffffffffffffffffff16021790555060408201518160000160156101000a81548160ff0219169083600381111561041957610418611176565b5b02179055506060820151816001015550509050506001549150600180546104409190611043565b60018190555050919050565b6000806000838152602001908152602001600020600001549050919050565b80600060028111156104805761047f611176565b5b81600281111561049357610492611176565b5b14806104c35750600160028111156104ae576104ad611176565b5b8160028111156104c1576104c0611176565b5b145b806104f157506002808111156104dc576104db611176565b5b8160028111156104ef576104ee611176565b5b145b6104fa57600080fd5b604051806080016040528083600281111561051857610517611176565b5b81526020013373ffffffffffffffffffffffffffffffffffffffff16815260200160038081111561054c5761054b611176565b5b81526020013481525060008085815260200190815260200160002060040160008201518160000160006101000a81548160ff0219169083600281111561059557610594611176565b5b021790555060208201518160000160016101000a81548173ffffffffffffffffffffffffffffffffffffffff021916908373ffffffffffffffffffffffffffffffffffffffff16021790555060408201518160000160156101000a81548160ff0219169083600381111561060c5761060b611176565b5b021790555060608201518160010155905050346000808581526020019081526020016000206000015461063f9190611043565b6000808581526020019081526020016000206000018190555061066183610c6a565b505050565b803360008083815260200190815260200160002060020160000160019054906101000a900473ffffffffffffffffffffffffffffffffffffffff1673ffffffffffffffffffffffffffffffffffffffff168173ffffffffffffffffffffffffffffffffffffffff16148061073d575060008083815260200190815260200160002060040160000160019054906101000a900473ffffffffffffffffffffffffffffffffffffffff1673ffffffffffffffffffffffffffffffffffffffff168173ffffffffffffffffffffffffffffffffffffffff16145b61074657600080fd5b6002600381111561075a57610759611176565b5b60008085815260200190815260200160002060020160000160159054906101000a900460ff16600381111561079257610791611176565b5b1480156107e85750600260038111156107ae576107ad611176565b5b60008085815260200190815260200160002060040160000160159054906101000a900460ff1660038111156107e6576107e5611176565b5b145b156109205760008084815260200190815260200160002060020160000160019054906101000a900473ffffffffffffffffffffffffffffffffffffffff1673ffffffffffffffffffffffffffffffffffffffff166108fc600080868152602001908152602001600020600201600101549081150290604051600060405180830381858888f19350505050158015610883573d6000803e3d6000fd5b5060008084815260200190815260200160002060040160000160019054906101000a900473ffffffffffffffffffffffffffffffffffffffff1673ffffffffffffffffffffffffffffffffffffffff166108fc600080868152602001908152602001600020600401600101549081150290604051600060405180830381858888f1935050505015801561091a573d6000803e3d6000fd5b50610c27565b6000600381111561093457610933611176565b5b60008085815260200190815260200160002060020160000160159054906101000a900460ff16600381111561096c5761096b611176565b5b1415610a0b5760008084815260200190815260200160002060020160000160019054906101000a900473ffffffffffffffffffffffffffffffffffffffff1673ffffffffffffffffffffffffffffffffffffffff166108fc600080868152602001908152602001600020600001549081150290604051600060405180830381858888f19350505050158015610a05573d6000803e3d6000fd5b50610c26565b60006003811115610a1f57610a1e611176565b5b60008085815260200190815260200160002060040160000160159054906101000a900460ff166003811115610a5757610a56611176565b5b1415610af65760008084815260200190815260200160002060040160000160019054906101000a900473ffffffffffffffffffffffffffffffffffffffff1673ffffffffffffffffffffffffffffffffffffffff166108fc600080868152602001908152602001600020600001549081150290604051600060405180830381858888f19350505050158015610af0573d6000803e3d6000fd5b50610c25565b60008084815260200190815260200160002060020160000160019054906101000a900473ffffffffffffffffffffffffffffffffffffffff1673ffffffffffffffffffffffffffffffffffffffff166108fc600080868152602001908152602001600020600201600101549081150290604051600060405180830381858888f19350505050158015610b8c573d6000803e3d6000fd5b5060008084815260200190815260200160002060040160000160019054906101000a900473ffffffffffffffffffffffffffffffffffffffff1673ffffffffffffffffffffffffffffffffffffffff166108fc600080868152602001908152602001600020600401600101549081150290604051600060405180830381858888f19350505050158015610c23573d6000803e3d6000fd5b505b5b5b600260008085815260200190815260200160002060010160006101000a81548160ff02191690836003811115610c6057610c5f611176565b5b0217905550505050565b600080600083815260200190815260200160002060020160000160009054906101000a900460ff166002811115610ca457610ca3611176565b5b9050600080600084815260200190815260200160002060040160000160009054906101000a900460ff166002811115610ce057610cdf611176565b5b9050600160008085815260200190815260200160002060010160006101000a81548160ff02191690836003811115610d1b57610d1a611176565b5b02179055508160ff168160ff161415610db557600260008085815260200190815260200160002060020160000160156101000a81548160ff02191690836003811115610d6a57610d69611176565b5b0217905550600260008085815260200190815260200160002060040160000160156101000a81548160ff02191690836003811115610dab57610daa611176565b5b0217905550610f50565b8160ff166003600183610dc89190611099565b610dd291906110e7565b60ff161415610e6257600080600085815260200190815260200160002060020160000160156101000a81548160ff02191690836003811115610e1757610e16611176565b5b0217905550600160008085815260200190815260200160002060040160000160156101000a81548160ff02191690836003811115610e5857610e57611176565b5b0217905550610f4f565b8060ff166003600184610e759190611099565b610e7f91906110e7565b60ff161415610f0f57600160008085815260200190815260200160002060020160000160156101000a81548160ff02191690836003811115610ec457610ec3611176565b5b0217905550600080600085815260200190815260200160002060040160000160156101000a81548160ff02191690836003811115610f0557610f04611176565b5b0217905550610f4e565b600360008085815260200190815260200160002060010160006101000a81548160ff02191690836003811115610f4857610f47611176565b5b02179055505b5b5b505050565b600081359050610f64816111aa565b92915050565b600081359050610f79816111ba565b92915050565b600060208284031215610f9557610f946111a5565b5b6000610fa384828501610f55565b91505092915050565b600060208284031215610fc257610fc16111a5565b5b6000610fd084828501610f6a565b91505092915050565b60008060408385031215610ff057610fef6111a5565b5b6000610ffe85828601610f6a565b925050602061100f85828601610f55565b9150509250929050565b611022816110d0565b82525050565b600060208201905061103d6000830184611019565b92915050565b600061104e826110d0565b9150611059836110d0565b9250827fffffffffffffffffffffffffffffffffffffffffffffffffffffffffffffffff0382111561108e5761108d611118565b5b828201905092915050565b60006110a4826110da565b91506110af836110da565b92508260ff038211156110c5576110c4611118565b5b828201905092915050565b6000819050919050565b600060ff82169050919050565b60006110f2826110da565b91506110fd836110da565b92508261110d5761110c611147565b5b828206905092915050565b7f4e487b7100000000000000000000000000000000000000000000000000000000600052601160045260246000fd5b7f4e487b7100000000000000000000000000000000000000000000000000000000600052601260045260246000fd5b7f4e487b7100000000000000000000000000000000000000000000000000000000600052602160045260246000fd5b600080fd5b600381106111b757600080fd5b50565b6111c3816110d0565b81146111ce57600080fd5b5056fea2646970667358221220931cecf9d5c9d97869e73c15fe78a9488ebb39d33e134d09c6931513bd07f64764736f6c63430008070033",
					"opcodes": "PUSH1 0x80 PUSH1 0x40 MSTORE PUSH1 0x0 PUSH1 0x1 SSTORE PUSH2 0x1207 DUP1 PUSH2 0x18 PUSH1 0x0 CODECOPY PUSH1 0x0 RETURN INVALID PUSH1 0x80 PUSH1 0x40 MSTORE PUSH1 0x4 CALLDATASIZE LT PUSH2 0x3F JUMPI PUSH1 0x0 CALLDATALOAD PUSH1 0xE0 SHR DUP1 PUSH4 0xF36F3B5 EQ PUSH2 0x44 JUMPI DUP1 PUSH4 0x393AF760 EQ PUSH2 0x74 JUMPI DUP1 PUSH4 0x79B15776 EQ PUSH2 0xB1 JUMPI DUP1 PUSH4 0xE1152343 EQ PUSH2 0xCD JUMPI JUMPDEST PUSH1 0x0 DUP1 REVERT JUMPDEST PUSH2 0x5E PUSH1 0x4 DUP1 CALLDATASIZE SUB DUP2 ADD SWAP1 PUSH2 0x59 SWAP2 SWAP1 PUSH2 0xF7F JUMP JUMPDEST PUSH2 0xE9 JUMP JUMPDEST PUSH1 0x40 MLOAD PUSH2 0x6B SWAP2 SWAP1 PUSH2 0x1028 JUMP JUMPDEST PUSH1 0x40 MLOAD DUP1 SWAP2 SUB SWAP1 RETURN JUMPDEST CALLVALUE DUP1 ISZERO PUSH2 0x80 JUMPI PUSH1 0x0 DUP1 REVERT JUMPDEST POP PUSH2 0x9B PUSH1 0x4 DUP1 CALLDATASIZE SUB DUP2 ADD SWAP1 PUSH2 0x96 SWAP2 SWAP1 PUSH2 0xFAC JUMP JUMPDEST PUSH2 0x44C JUMP JUMPDEST PUSH1 0x40 MLOAD PUSH2 0xA8 SWAP2 SWAP1 PUSH2 0x1028 JUMP JUMPDEST PUSH1 0x40 MLOAD DUP1 SWAP2 SUB SWAP1 RETURN JUMPDEST PUSH2 0xCB PUSH1 0x4 DUP1 CALLDATASIZE SUB DUP2 ADD SWAP1 PUSH2 0xC6 SWAP2 SWAP1 PUSH2 0xFD9 JUMP JUMPDEST PUSH2 0x46B JUMP JUMPDEST STOP JUMPDEST PUSH2 0xE7 PUSH1 0x4 DUP1 CALLDATASIZE SUB DUP2 ADD SWAP1 PUSH2 0xE2 SWAP2 SWAP1 PUSH2 0xFAC JUMP JUMPDEST PUSH2 0x666 JUMP JUMPDEST STOP JUMPDEST PUSH1 0x0 DUP2 PUSH1 0x0 PUSH1 0x2 DUP2 GT ISZERO PUSH2 0x100 JUMPI PUSH2 0xFF PUSH2 0x1176 JUMP JUMPDEST JUMPDEST DUP2 PUSH1 0x2 DUP2 GT ISZERO PUSH2 0x113 JUMPI PUSH2 0x112 PUSH2 0x1176 JUMP JUMPDEST JUMPDEST EQ DUP1 PUSH2 0x143 JUMPI POP PUSH1 0x1 PUSH1 0x2 DUP2 GT ISZERO PUSH2 0x12E JUMPI PUSH2 0x12D PUSH2 0x1176 JUMP JUMPDEST JUMPDEST DUP2 PUSH1 0x2 DUP2 GT ISZERO PUSH2 0x141 JUMPI PUSH2 0x140 PUSH2 0x1176 JUMP JUMPDEST JUMPDEST EQ JUMPDEST DUP1 PUSH2 0x171 JUMPI POP PUSH1 0x2 DUP1 DUP2 GT ISZERO PUSH2 0x15C JUMPI PUSH2 0x15B PUSH2 0x1176 JUMP JUMPDEST JUMPDEST DUP2 PUSH1 0x2 DUP2 GT ISZERO PUSH2 0x16F JUMPI PUSH2 0x16E PUSH2 0x1176 JUMP JUMPDEST JUMPDEST EQ JUMPDEST PUSH2 0x17A JUMPI PUSH1 0x0 DUP1 REVERT JUMPDEST PUSH1 0x40 MLOAD DUP1 PUSH1 0x80 ADD PUSH1 0x40 MSTORE DUP1 CALLVALUE DUP2 MSTORE PUSH1 0x20 ADD PUSH1 0x0 PUSH1 0x3 DUP2 GT ISZERO PUSH2 0x19F JUMPI PUSH2 0x19E PUSH2 0x1176 JUMP JUMPDEST JUMPDEST DUP2 MSTORE PUSH1 0x20 ADD PUSH1 0x40 MLOAD DUP1 PUSH1 0x80 ADD PUSH1 0x40 MSTORE DUP1 DUP7 PUSH1 0x2 DUP2 GT ISZERO PUSH2 0x1C2 JUMPI PUSH2 0x1C1 PUSH2 0x1176 JUMP JUMPDEST JUMPDEST DUP2 MSTORE PUSH1 0x20 ADD CALLER PUSH20 0xFFFFFFFFFFFFFFFFFFFFFFFFFFFFFFFFFFFFFFFF AND DUP2 MSTORE PUSH1 0x20 ADD PUSH1 0x3 DUP1 DUP2 GT ISZERO PUSH2 0x1F6 JUMPI PUSH2 0x1F5 PUSH2 0x1176 JUMP JUMPDEST JUMPDEST DUP2 MSTORE PUSH1 0x20 ADD CALLVALUE DUP2 MSTORE POP DUP2 MSTORE PUSH1 0x20 ADD PUSH1 0x40 MLOAD DUP1 PUSH1 0x80 ADD PUSH1 0x40 MSTORE DUP1 PUSH1 0x0 PUSH1 0x2 DUP2 GT ISZERO PUSH2 0x223 JUMPI PUSH2 0x222 PUSH2 0x1176 JUMP JUMPDEST JUMPDEST DUP2 MSTORE PUSH1 0x20 ADD CALLER PUSH20 0xFFFFFFFFFFFFFFFFFFFFFFFFFFFFFFFFFFFFFFFF AND DUP2 MSTORE PUSH1 0x20 ADD PUSH1 0x3 DUP1 DUP2 GT ISZERO PUSH2 0x257 JUMPI PUSH2 0x256 PUSH2 0x1176 JUMP JUMPDEST JUMPDEST DUP2 MSTORE PUSH1 0x20 ADD PUSH1 0x0 DUP2 MSTORE POP DUP2 MSTORE POP PUSH1 0x0 DUP1 PUSH1 0x1 SLOAD DUP2 MSTORE PUSH1 0x20 ADD SWAP1 DUP2 MSTORE PUSH1 0x20 ADD PUSH1 0x0 KECCAK256 PUSH1 0x0 DUP3 ADD MLOAD DUP2 PUSH1 0x0 ADD SSTORE PUSH1 0x20 DUP3 ADD MLOAD DUP2 PUSH1 0x1 ADD PUSH1 0x0 PUSH2 0x100 EXP DUP2 SLOAD DUP2 PUSH1 0xFF MUL NOT AND SWAP1 DUP4 PUSH1 0x3 DUP2 GT ISZERO PUSH2 0x2AD JUMPI PUSH2 0x2AC PUSH2 0x1176 JUMP JUMPDEST JUMPDEST MUL OR SWAP1 SSTORE POP PUSH1 0x40 DUP3 ADD MLOAD DUP2 PUSH1 0x2 ADD PUSH1 0x0 DUP3 ADD MLOAD DUP2 PUSH1 0x0 ADD PUSH1 0x0 PUSH2 0x100 EXP DUP2 SLOAD DUP2 PUSH1 0xFF MUL NOT AND SWAP1 DUP4 PUSH1 0x2 DUP2 GT ISZERO PUSH2 0x2E6 JUMPI PUSH2 0x2E5 PUSH2 0x1176 JUMP JUMPDEST JUMPDEST MUL OR SWAP1 SSTORE POP PUSH1 0x20 DUP3 ADD MLOAD DUP2 PUSH1 0x0 ADD PUSH1 0x1 PUSH2 0x100 EXP DUP2 SLOAD DUP2 PUSH20 0xFFFFFFFFFFFFFFFFFFFFFFFFFFFFFFFFFFFFFFFF MUL NOT AND SWAP1 DUP4 PUSH20 0xFFFFFFFFFFFFFFFFFFFFFFFFFFFFFFFFFFFFFFFF AND MUL OR SWAP1 SSTORE POP PUSH1 0x40 DUP3 ADD MLOAD DUP2 PUSH1 0x0 ADD PUSH1 0x15 PUSH2 0x100 EXP DUP2 SLOAD DUP2 PUSH1 0xFF MUL NOT AND SWAP1 DUP4 PUSH1 0x3 DUP2 GT ISZERO PUSH2 0x35D JUMPI PUSH2 0x35C PUSH2 0x1176 JUMP JUMPDEST JUMPDEST MUL OR SWAP1 SSTORE POP PUSH1 0x60 DUP3 ADD MLOAD DUP2 PUSH1 0x1 ADD SSTORE POP POP PUSH1 0x60 DUP3 ADD MLOAD DUP2 PUSH1 0x4 ADD PUSH1 0x0 DUP3 ADD MLOAD DUP2 PUSH1 0x0 ADD PUSH1 0x0 PUSH2 0x100 EXP DUP2 SLOAD DUP2 PUSH1 0xFF MUL NOT AND SWAP1 DUP4 PUSH1 0x2 DUP2 GT ISZERO PUSH2 0x3A2 JUMPI PUSH2 0x3A1 PUSH2 0x1176 JUMP JUMPDEST JUMPDEST MUL OR SWAP1 SSTORE POP PUSH1 0x20 DUP3 ADD MLOAD DUP2 PUSH1 0x0 ADD PUSH1 0x1 PUSH2 0x100 EXP DUP2 SLOAD DUP2 PUSH20 0xFFFFFFFFFFFFFFFFFFFFFFFFFFFFFFFFFFFFFFFF MUL NOT AND SWAP1 DUP4 PUSH20 0xFFFFFFFFFFFFFFFFFFFFFFFFFFFFFFFFFFFFFFFF AND MUL OR SWAP1 SSTORE POP PUSH1 0x40 DUP3 ADD MLOAD DUP2 PUSH1 0x0 ADD PUSH1 0x15 PUSH2 0x100 EXP DUP2 SLOAD DUP2 PUSH1 0xFF MUL NOT AND SWAP1 DUP4 PUSH1 0x3 DUP2 GT ISZERO PUSH2 0x419 JUMPI PUSH2 0x418 PUSH2 0x1176 JUMP JUMPDEST JUMPDEST MUL OR SWAP1 SSTORE POP PUSH1 0x60 DUP3 ADD MLOAD DUP2 PUSH1 0x1 ADD SSTORE POP POP SWAP1 POP POP PUSH1 0x1 SLOAD SWAP2 POP PUSH1 0x1 DUP1 SLOAD PUSH2 0x440 SWAP2 SWAP1 PUSH2 0x1043 JUMP JUMPDEST PUSH1 0x1 DUP2 SWAP1 SSTORE POP POP SWAP2 SWAP1 POP JUMP JUMPDEST PUSH1 0x0 DUP1 PUSH1 0x0 DUP4 DUP2 MSTORE PUSH1 0x20 ADD SWAP1 DUP2 MSTORE PUSH1 0x20 ADD PUSH1 0x0 KECCAK256 PUSH1 0x0 ADD SLOAD SWAP1 POP SWAP2 SWAP1 POP JUMP JUMPDEST DUP1 PUSH1 0x0 PUSH1 0x2 DUP2 GT ISZERO PUSH2 0x480 JUMPI PUSH2 0x47F PUSH2 0x1176 JUMP JUMPDEST JUMPDEST DUP2 PUSH1 0x2 DUP2 GT ISZERO PUSH2 0x493 JUMPI PUSH2 0x492 PUSH2 0x1176 JUMP JUMPDEST JUMPDEST EQ DUP1 PUSH2 0x4C3 JUMPI POP PUSH1 0x1 PUSH1 0x2 DUP2 GT ISZERO PUSH2 0x4AE JUMPI PUSH2 0x4AD PUSH2 0x1176 JUMP JUMPDEST JUMPDEST DUP2 PUSH1 0x2 DUP2 GT ISZERO PUSH2 0x4C1 JUMPI PUSH2 0x4C0 PUSH2 0x1176 JUMP JUMPDEST JUMPDEST EQ JUMPDEST DUP1 PUSH2 0x4F1 JUMPI POP PUSH1 0x2 DUP1 DUP2 GT ISZERO PUSH2 0x4DC JUMPI PUSH2 0x4DB PUSH2 0x1176 JUMP JUMPDEST JUMPDEST DUP2 PUSH1 0x2 DUP2 GT ISZERO PUSH2 0x4EF JUMPI PUSH2 0x4EE PUSH2 0x1176 JUMP JUMPDEST JUMPDEST EQ JUMPDEST PUSH2 0x4FA JUMPI PUSH1 0x0 DUP1 REVERT JUMPDEST PUSH1 0x40 MLOAD DUP1 PUSH1 0x80 ADD PUSH1 0x40 MSTORE DUP1 DUP4 PUSH1 0x2 DUP2 GT ISZERO PUSH2 0x518 JUMPI PUSH2 0x517 PUSH2 0x1176 JUMP JUMPDEST JUMPDEST DUP2 MSTORE PUSH1 0x20 ADD CALLER PUSH20 0xFFFFFFFFFFFFFFFFFFFFFFFFFFFFFFFFFFFFFFFF AND DUP2 MSTORE PUSH1 0x20 ADD PUSH1 0x3 DUP1 DUP2 GT ISZERO PUSH2 0x54C JUMPI PUSH2 0x54B PUSH2 0x1176 JUMP JUMPDEST JUMPDEST DUP2 MSTORE PUSH1 0x20 ADD CALLVALUE DUP2 MSTORE POP PUSH1 0x0 DUP1 DUP6 DUP2 MSTORE PUSH1 0x20 ADD SWAP1 DUP2 MSTORE PUSH1 0x20 ADD PUSH1 0x0 KECCAK256 PUSH1 0x4 ADD PUSH1 0x0 DUP3 ADD MLOAD DUP2 PUSH1 0x0 ADD PUSH1 0x0 PUSH2 0x100 EXP DUP2 SLOAD DUP2 PUSH1 0xFF MUL NOT AND SWAP1 DUP4 PUSH1 0x2 DUP2 GT ISZERO PUSH2 0x595 JUMPI PUSH2 0x594 PUSH2 0x1176 JUMP JUMPDEST JUMPDEST MUL OR SWAP1 SSTORE POP PUSH1 0x20 DUP3 ADD MLOAD DUP2 PUSH1 0x0 ADD PUSH1 0x1 PUSH2 0x100 EXP DUP2 SLOAD DUP2 PUSH20 0xFFFFFFFFFFFFFFFFFFFFFFFFFFFFFFFFFFFFFFFF MUL NOT AND SWAP1 DUP4 PUSH20 0xFFFFFFFFFFFFFFFFFFFFFFFFFFFFFFFFFFFFFFFF AND MUL OR SWAP1 SSTORE POP PUSH1 0x40 DUP3 ADD MLOAD DUP2 PUSH1 0x0 ADD PUSH1 0x15 PUSH2 0x100 EXP DUP2 SLOAD DUP2 PUSH1 0xFF MUL NOT AND SWAP1 DUP4 PUSH1 0x3 DUP2 GT ISZERO PUSH2 0x60C JUMPI PUSH2 0x60B PUSH2 0x1176 JUMP JUMPDEST JUMPDEST MUL OR SWAP1 SSTORE POP PUSH1 0x60 DUP3 ADD MLOAD DUP2 PUSH1 0x1 ADD SSTORE SWAP1 POP POP CALLVALUE PUSH1 0x0 DUP1 DUP6 DUP2 MSTORE PUSH1 0x20 ADD SWAP1 DUP2 MSTORE PUSH1 0x20 ADD PUSH1 0x0 KECCAK256 PUSH1 0x0 ADD SLOAD PUSH2 0x63F SWAP2 SWAP1 PUSH2 0x1043 JUMP JUMPDEST PUSH1 0x0 DUP1 DUP6 DUP2 MSTORE PUSH1 0x20 ADD SWAP1 DUP2 MSTORE PUSH1 0x20 ADD PUSH1 0x0 KECCAK256 PUSH1 0x0 ADD DUP2 SWAP1 SSTORE POP PUSH2 0x661 DUP4 PUSH2 0xC6A JUMP JUMPDEST POP POP POP JUMP JUMPDEST DUP1 CALLER PUSH1 0x0 DUP1 DUP4 DUP2 MSTORE PUSH1 0x20 ADD SWAP1 DUP2 MSTORE PUSH1 0x20 ADD PUSH1 0x0 KECCAK256 PUSH1 0x2 ADD PUSH1 0x0 ADD PUSH1 0x1 SWAP1 SLOAD SWAP1 PUSH2 0x100 EXP SWAP1 DIV PUSH20 0xFFFFFFFFFFFFFFFFFFFFFFFFFFFFFFFFFFFFFFFF AND PUSH20 0xFFFFFFFFFFFFFFFFFFFFFFFFFFFFFFFFFFFFFFFF AND DUP2 PUSH20 0xFFFFFFFFFFFFFFFFFFFFFFFFFFFFFFFFFFFFFFFF AND EQ DUP1 PUSH2 0x73D JUMPI POP PUSH1 0x0 DUP1 DUP4 DUP2 MSTORE PUSH1 0x20 ADD SWAP1 DUP2 MSTORE PUSH1 0x20 ADD PUSH1 0x0 KECCAK256 PUSH1 0x4 ADD PUSH1 0x0 ADD PUSH1 0x1 SWAP1 SLOAD SWAP1 PUSH2 0x100 EXP SWAP1 DIV PUSH20 0xFFFFFFFFFFFFFFFFFFFFFFFFFFFFFFFFFFFFFFFF AND PUSH20 0xFFFFFFFFFFFFFFFFFFFFFFFFFFFFFFFFFFFFFFFF AND DUP2 PUSH20 0xFFFFFFFFFFFFFFFFFFFFFFFFFFFFFFFFFFFFFFFF AND EQ JUMPDEST PUSH2 0x746 JUMPI PUSH1 0x0 DUP1 REVERT JUMPDEST PUSH1 0x2 PUSH1 0x3 DUP2 GT ISZERO PUSH2 0x75A JUMPI PUSH2 0x759 PUSH2 0x1176 JUMP JUMPDEST JUMPDEST PUSH1 0x0 DUP1 DUP6 DUP2 MSTORE PUSH1 0x20 ADD SWAP1 DUP2 MSTORE PUSH1 0x20 ADD PUSH1 0x0 KECCAK256 PUSH1 0x2 ADD PUSH1 0x0 ADD PUSH1 0x15 SWAP1 SLOAD SWAP1 PUSH2 0x100 EXP SWAP1 DIV PUSH1 0xFF AND PUSH1 0x3 DUP2 GT ISZERO PUSH2 0x792 JUMPI PUSH2 0x791 PUSH2 0x1176 JUMP JUMPDEST JUMPDEST EQ DUP1 ISZERO PUSH2 0x7E8 JUMPI POP PUSH1 0x2 PUSH1 0x3 DUP2 GT ISZERO PUSH2 0x7AE JUMPI PUSH2 0x7AD PUSH2 0x1176 JUMP JUMPDEST JUMPDEST PUSH1 0x0 DUP1 DUP6 DUP2 MSTORE PUSH1 0x20 ADD SWAP1 DUP2 MSTORE PUSH1 0x20 ADD PUSH1 0x0 KECCAK256 PUSH1 0x4 ADD PUSH1 0x0 ADD PUSH1 0x15 SWAP1 SLOAD SWAP1 PUSH2 0x100 EXP SWAP1 DIV PUSH1 0xFF AND PUSH1 0x3 DUP2 GT ISZERO PUSH2 0x7E6 JUMPI PUSH2 0x7E5 PUSH2 0x1176 JUMP JUMPDEST JUMPDEST EQ JUMPDEST ISZERO PUSH2 0x920 JUMPI PUSH1 0x0 DUP1 DUP5 DUP2 MSTORE PUSH1 0x20 ADD SWAP1 DUP2 MSTORE PUSH1 0x20 ADD PUSH1 0x0 KECCAK256 PUSH1 0x2 ADD PUSH1 0x0 ADD PUSH1 0x1 SWAP1 SLOAD SWAP1 PUSH2 0x100 EXP SWAP1 DIV PUSH20 0xFFFFFFFFFFFFFFFFFFFFFFFFFFFFFFFFFFFFFFFF AND PUSH20 0xFFFFFFFFFFFFFFFFFFFFFFFFFFFFFFFFFFFFFFFF AND PUSH2 0x8FC PUSH1 0x0 DUP1 DUP7 DUP2 MSTORE PUSH1 0x20 ADD SWAP1 DUP2 MSTORE PUSH1 0x20 ADD PUSH1 0x0 KECCAK256 PUSH1 0x2 ADD PUSH1 0x1 ADD SLOAD SWAP1 DUP2 ISZERO MUL SWAP1 PUSH1 0x40 MLOAD PUSH1 0x0 PUSH1 0x40 MLOAD DUP1 DUP4 SUB DUP2 DUP6 DUP9 DUP9 CALL SWAP4 POP POP POP POP ISZERO DUP1 ISZERO PUSH2 0x883 JUMPI RETURNDATASIZE PUSH1 0x0 DUP1 RETURNDATACOPY RETURNDATASIZE PUSH1 0x0 REVERT JUMPDEST POP PUSH1 0x0 DUP1 DUP5 DUP2 MSTORE PUSH1 0x20 ADD SWAP1 DUP2 MSTORE PUSH1 0x20 ADD PUSH1 0x0 KECCAK256 PUSH1 0x4 ADD PUSH1 0x0 ADD PUSH1 0x1 SWAP1 SLOAD SWAP1 PUSH2 0x100 EXP SWAP1 DIV PUSH20 0xFFFFFFFFFFFFFFFFFFFFFFFFFFFFFFFFFFFFFFFF AND PUSH20 0xFFFFFFFFFFFFFFFFFFFFFFFFFFFFFFFFFFFFFFFF AND PUSH2 0x8FC PUSH1 0x0 DUP1 DUP7 DUP2 MSTORE PUSH1 0x20 ADD SWAP1 DUP2 MSTORE PUSH1 0x20 ADD PUSH1 0x0 KECCAK256 PUSH1 0x4 ADD PUSH1 0x1 ADD SLOAD SWAP1 DUP2 ISZERO MUL SWAP1 PUSH1 0x40 MLOAD PUSH1 0x0 PUSH1 0x40 MLOAD DUP1 DUP4 SUB DUP2 DUP6 DUP9 DUP9 CALL SWAP4 POP POP POP POP ISZERO DUP1 ISZERO PUSH2 0x91A JUMPI RETURNDATASIZE PUSH1 0x0 DUP1 RETURNDATACOPY RETURNDATASIZE PUSH1 0x0 REVERT JUMPDEST POP PUSH2 0xC27 JUMP JUMPDEST PUSH1 0x0 PUSH1 0x3 DUP2 GT ISZERO PUSH2 0x934 JUMPI PUSH2 0x933 PUSH2 0x1176 JUMP JUMPDEST JUMPDEST PUSH1 0x0 DUP1 DUP6 DUP2 MSTORE PUSH1 0x20 ADD SWAP1 DUP2 MSTORE PUSH1 0x20 ADD PUSH1 0x0 KECCAK256 PUSH1 0x2 ADD PUSH1 0x0 ADD PUSH1 0x15 SWAP1 SLOAD SWAP1 PUSH2 0x100 EXP SWAP1 DIV PUSH1 0xFF AND PUSH1 0x3 DUP2 GT ISZERO PUSH2 0x96C JUMPI PUSH2 0x96B PUSH2 0x1176 JUMP JUMPDEST JUMPDEST EQ ISZERO PUSH2 0xA0B JUMPI PUSH1 0x0 DUP1 DUP5 DUP2 MSTORE PUSH1 0x20 ADD SWAP1 DUP2 MSTORE PUSH1 0x20 ADD PUSH1 0x0 KECCAK256 PUSH1 0x2 ADD PUSH1 0x0 ADD PUSH1 0x1 SWAP1 SLOAD SWAP1 PUSH2 0x100 EXP SWAP1 DIV PUSH20 0xFFFFFFFFFFFFFFFFFFFFFFFFFFFFFFFFFFFFFFFF AND PUSH20 0xFFFFFFFFFFFFFFFFFFFFFFFFFFFFFFFFFFFFFFFF AND PUSH2 0x8FC PUSH1 0x0 DUP1 DUP7 DUP2 MSTORE PUSH1 0x20 ADD SWAP1 DUP2 MSTORE PUSH1 0x20 ADD PUSH1 0x0 KECCAK256 PUSH1 0x0 ADD SLOAD SWAP1 DUP2 ISZERO MUL SWAP1 PUSH1 0x40 MLOAD PUSH1 0x0 PUSH1 0x40 MLOAD DUP1 DUP4 SUB DUP2 DUP6 DUP9 DUP9 CALL SWAP4 POP POP POP POP ISZERO DUP1 ISZERO PUSH2 0xA05 JUMPI RETURNDATASIZE PUSH1 0x0 DUP1 RETURNDATACOPY RETURNDATASIZE PUSH1 0x0 REVERT JUMPDEST POP PUSH2 0xC26 JUMP JUMPDEST PUSH1 0x0 PUSH1 0x3 DUP2 GT ISZERO PUSH2 0xA1F JUMPI PUSH2 0xA1E PUSH2 0x1176 JUMP JUMPDEST JUMPDEST PUSH1 0x0 DUP1 DUP6 DUP2 MSTORE PUSH1 0x20 ADD SWAP1 DUP2 MSTORE PUSH1 0x20 ADD PUSH1 0x0 KECCAK256 PUSH1 0x4 ADD PUSH1 0x0 ADD PUSH1 0x15 SWAP1 SLOAD SWAP1 PUSH2 0x100 EXP SWAP1 DIV PUSH1 0xFF AND PUSH1 0x3 DUP2 GT ISZERO PUSH2 0xA57 JUMPI PUSH2 0xA56 PUSH2 0x1176 JUMP JUMPDEST JUMPDEST EQ ISZERO PUSH2 0xAF6 JUMPI PUSH1 0x0 DUP1 DUP5 DUP2 MSTORE PUSH1 0x20 ADD SWAP1 DUP2 MSTORE PUSH1 0x20 ADD PUSH1 0x0 KECCAK256 PUSH1 0x4 ADD PUSH1 0x0 ADD PUSH1 0x1 SWAP1 SLOAD SWAP1 PUSH2 0x100 EXP SWAP1 DIV PUSH20 0xFFFFFFFFFFFFFFFFFFFFFFFFFFFFFFFFFFFFFFFF AND PUSH20 0xFFFFFFFFFFFFFFFFFFFFFFFFFFFFFFFFFFFFFFFF AND PUSH2 0x8FC PUSH1 0x0 DUP1 DUP7 DUP2 MSTORE PUSH1 0x20 ADD SWAP1 DUP2 MSTORE PUSH1 0x20 ADD PUSH1 0x0 KECCAK256 PUSH1 0x0 ADD SLOAD SWAP1 DUP2 ISZERO MUL SWAP1 PUSH1 0x40 MLOAD PUSH1 0x0 PUSH1 0x40 MLOAD DUP1 DUP4 SUB DUP2 DUP6 DUP9 DUP9 CALL SWAP4 POP POP POP POP ISZERO DUP1 ISZERO PUSH2 0xAF0 JUMPI RETURNDATASIZE PUSH1 0x0 DUP1 RETURNDATACOPY RETURNDATASIZE PUSH1 0x0 REVERT JUMPDEST POP PUSH2 0xC25 JUMP JUMPDEST PUSH1 0x0 DUP1 DUP5 DUP2 MSTORE PUSH1 0x20 ADD SWAP1 DUP2 MSTORE PUSH1 0x20 ADD PUSH1 0x0 KECCAK256 PUSH1 0x2 ADD PUSH1 0x0 ADD PUSH1 0x1 SWAP1 SLOAD SWAP1 PUSH2 0x100 EXP SWAP1 DIV PUSH20 0xFFFFFFFFFFFFFFFFFFFFFFFFFFFFFFFFFFFFFFFF AND PUSH20 0xFFFFFFFFFFFFFFFFFFFFFFFFFFFFFFFFFFFFFFFF AND PUSH2 0x8FC PUSH1 0x0 DUP1 DUP7 DUP2 MSTORE PUSH1 0x20 ADD SWAP1 DUP2 MSTORE PUSH1 0x20 ADD PUSH1 0x0 KECCAK256 PUSH1 0x2 ADD PUSH1 0x1 ADD SLOAD SWAP1 DUP2 ISZERO MUL SWAP1 PUSH1 0x40 MLOAD PUSH1 0x0 PUSH1 0x40 MLOAD DUP1 DUP4 SUB DUP2 DUP6 DUP9 DUP9 CALL SWAP4 POP POP POP POP ISZERO DUP1 ISZERO PUSH2 0xB8C JUMPI RETURNDATASIZE PUSH1 0x0 DUP1 RETURNDATACOPY RETURNDATASIZE PUSH1 0x0 REVERT JUMPDEST POP PUSH1 0x0 DUP1 DUP5 DUP2 MSTORE PUSH1 0x20 ADD SWAP1 DUP2 MSTORE PUSH1 0x20 ADD PUSH1 0x0 KECCAK256 PUSH1 0x4 ADD PUSH1 0x0 ADD PUSH1 0x1 SWAP1 SLOAD SWAP1 PUSH2 0x100 EXP SWAP1 DIV PUSH20 0xFFFFFFFFFFFFFFFFFFFFFFFFFFFFFFFFFFFFFFFF AND PUSH20 0xFFFFFFFFFFFFFFFFFFFFFFFFFFFFFFFFFFFFFFFF AND PUSH2 0x8FC PUSH1 0x0 DUP1 DUP7 DUP2 MSTORE PUSH1 0x20 ADD SWAP1 DUP2 MSTORE PUSH1 0x20 ADD PUSH1 0x0 KECCAK256 PUSH1 0x4 ADD PUSH1 0x1 ADD SLOAD SWAP1 DUP2 ISZERO MUL SWAP1 PUSH1 0x40 MLOAD PUSH1 0x0 PUSH1 0x40 MLOAD DUP1 DUP4 SUB DUP2 DUP6 DUP9 DUP9 CALL SWAP4 POP POP POP POP ISZERO DUP1 ISZERO PUSH2 0xC23 JUMPI RETURNDATASIZE PUSH1 0x0 DUP1 RETURNDATACOPY RETURNDATASIZE PUSH1 0x0 REVERT JUMPDEST POP JUMPDEST JUMPDEST JUMPDEST PUSH1 0x2 PUSH1 0x0 DUP1 DUP6 DUP2 MSTORE PUSH1 0x20 ADD SWAP1 DUP2 MSTORE PUSH1 0x20 ADD PUSH1 0x0 KECCAK256 PUSH1 0x1 ADD PUSH1 0x0 PUSH2 0x100 EXP DUP2 SLOAD DUP2 PUSH1 0xFF MUL NOT AND SWAP1 DUP4 PUSH1 0x3 DUP2 GT ISZERO PUSH2 0xC60 JUMPI PUSH2 0xC5F PUSH2 0x1176 JUMP JUMPDEST JUMPDEST MUL OR SWAP1 SSTORE POP POP POP POP JUMP JUMPDEST PUSH1 0x0 DUP1 PUSH1 0x0 DUP4 DUP2 MSTORE PUSH1 0x20 ADD SWAP1 DUP2 MSTORE PUSH1 0x20 ADD PUSH1 0x0 KECCAK256 PUSH1 0x2 ADD PUSH1 0x0 ADD PUSH1 0x0 SWAP1 SLOAD SWAP1 PUSH2 0x100 EXP SWAP1 DIV PUSH1 0xFF AND PUSH1 0x2 DUP2 GT ISZERO PUSH2 0xCA4 JUMPI PUSH2 0xCA3 PUSH2 0x1176 JUMP JUMPDEST JUMPDEST SWAP1 POP PUSH1 0x0 DUP1 PUSH1 0x0 DUP5 DUP2 MSTORE PUSH1 0x20 ADD SWAP1 DUP2 MSTORE PUSH1 0x20 ADD PUSH1 0x0 KECCAK256 PUSH1 0x4 ADD PUSH1 0x0 ADD PUSH1 0x0 SWAP1 SLOAD SWAP1 PUSH2 0x100 EXP SWAP1 DIV PUSH1 0xFF AND PUSH1 0x2 DUP2 GT ISZERO PUSH2 0xCE0 JUMPI PUSH2 0xCDF PUSH2 0x1176 JUMP JUMPDEST JUMPDEST SWAP1 POP PUSH1 0x1 PUSH1 0x0 DUP1 DUP6 DUP2 MSTORE PUSH1 0x20 ADD SWAP1 DUP2 MSTORE PUSH1 0x20 ADD PUSH1 0x0 KECCAK256 PUSH1 0x1 ADD PUSH1 0x0 PUSH2 0x100 EXP DUP2 SLOAD DUP2 PUSH1 0xFF MUL NOT AND SWAP1 DUP4 PUSH1 0x3 DUP2 GT ISZERO PUSH2 0xD1B JUMPI PUSH2 0xD1A PUSH2 0x1176 JUMP JUMPDEST JUMPDEST MUL OR SWAP1 SSTORE POP DUP2 PUSH1 0xFF AND DUP2 PUSH1 0xFF AND EQ ISZERO PUSH2 0xDB5 JUMPI PUSH1 0x2 PUSH1 0x0 DUP1 DUP6 DUP2 MSTORE PUSH1 0x20 ADD SWAP1 DUP2 MSTORE PUSH1 0x20 ADD PUSH1 0x0 KECCAK256 PUSH1 0x2 ADD PUSH1 0x0 ADD PUSH1 0x15 PUSH2 0x100 EXP DUP2 SLOAD DUP2 PUSH1 0xFF MUL NOT AND SWAP1 DUP4 PUSH1 0x3 DUP2 GT ISZERO PUSH2 0xD6A JUMPI PUSH2 0xD69 PUSH2 0x1176 JUMP JUMPDEST JUMPDEST MUL OR SWAP1 SSTORE POP PUSH1 0x2 PUSH1 0x0 DUP1 DUP6 DUP2 MSTORE PUSH1 0x20 ADD SWAP1 DUP2 MSTORE PUSH1 0x20 ADD PUSH1 0x0 KECCAK256 PUSH1 0x4 ADD PUSH1 0x0 ADD PUSH1 0x15 PUSH2 0x100 EXP DUP2 SLOAD DUP2 PUSH1 0xFF MUL NOT AND SWAP1 DUP4 PUSH1 0x3 DUP2 GT ISZERO PUSH2 0xDAB JUMPI PUSH2 0xDAA PUSH2 0x1176 JUMP JUMPDEST JUMPDEST MUL OR SWAP1 SSTORE POP PUSH2 0xF50 JUMP JUMPDEST DUP2 PUSH1 0xFF AND PUSH1 0x3 PUSH1 0x1 DUP4 PUSH2 0xDC8 SWAP2 SWAP1 PUSH2 0x1099 JUMP JUMPDEST PUSH2 0xDD2 SWAP2 SWAP1 PUSH2 0x10E7 JUMP JUMPDEST PUSH1 0xFF AND EQ ISZERO PUSH2 0xE62 JUMPI PUSH1 0x0 DUP1 PUSH1 0x0 DUP6 DUP2 MSTORE PUSH1 0x20 ADD SWAP1 DUP2 MSTORE PUSH1 0x20 ADD PUSH1 0x0 KECCAK256 PUSH1 0x2 ADD PUSH1 0x0 ADD PUSH1 0x15 PUSH2 0x100 EXP DUP2 SLOAD DUP2 PUSH1 0xFF MUL NOT AND SWAP1 DUP4 PUSH1 0x3 DUP2 GT ISZERO PUSH2 0xE17 JUMPI PUSH2 0xE16 PUSH2 0x1176 JUMP JUMPDEST JUMPDEST MUL OR SWAP1 SSTORE POP PUSH1 0x1 PUSH1 0x0 DUP1 DUP6 DUP2 MSTORE PUSH1 0x20 ADD SWAP1 DUP2 MSTORE PUSH1 0x20 ADD PUSH1 0x0 KECCAK256 PUSH1 0x4 ADD PUSH1 0x0 ADD PUSH1 0x15 PUSH2 0x100 EXP DUP2 SLOAD DUP2 PUSH1 0xFF MUL NOT AND SWAP1 DUP4 PUSH1 0x3 DUP2 GT ISZERO PUSH2 0xE58 JUMPI PUSH2 0xE57 PUSH2 0x1176 JUMP JUMPDEST JUMPDEST MUL OR SWAP1 SSTORE POP PUSH2 0xF4F JUMP JUMPDEST DUP1 PUSH1 0xFF AND PUSH1 0x3 PUSH1 0x1 DUP5 PUSH2 0xE75 SWAP2 SWAP1 PUSH2 0x1099 JUMP JUMPDEST PUSH2 0xE7F SWAP2 SWAP1 PUSH2 0x10E7 JUMP JUMPDEST PUSH1 0xFF AND EQ ISZERO PUSH2 0xF0F JUMPI PUSH1 0x1 PUSH1 0x0 DUP1 DUP6 DUP2 MSTORE PUSH1 0x20 ADD SWAP1 DUP2 MSTORE PUSH1 0x20 ADD PUSH1 0x0 KECCAK256 PUSH1 0x2 ADD PUSH1 0x0 ADD PUSH1 0x15 PUSH2 0x100 EXP DUP2 SLOAD DUP2 PUSH1 0xFF MUL NOT AND SWAP1 DUP4 PUSH1 0x3 DUP2 GT ISZERO PUSH2 0xEC4 JUMPI PUSH2 0xEC3 PUSH2 0x1176 JUMP JUMPDEST JUMPDEST MUL OR SWAP1 SSTORE POP PUSH1 0x0 DUP1 PUSH1 0x0 DUP6 DUP2 MSTORE PUSH1 0x20 ADD SWAP1 DUP2 MSTORE PUSH1 0x20 ADD PUSH1 0x0 KECCAK256 PUSH1 0x4 ADD PUSH1 0x0 ADD PUSH1 0x15 PUSH2 0x100 EXP DUP2 SLOAD DUP2 PUSH1 0xFF MUL NOT AND SWAP1 DUP4 PUSH1 0x3 DUP2 GT ISZERO PUSH2 0xF05 JUMPI PUSH2 0xF04 PUSH2 0x1176 JUMP JUMPDEST JUMPDEST MUL OR SWAP1 SSTORE POP PUSH2 0xF4E JUMP JUMPDEST PUSH1 0x3 PUSH1 0x0 DUP1 DUP6 DUP2 MSTORE PUSH1 0x20 ADD SWAP1 DUP2 MSTORE PUSH1 0x20 ADD PUSH1 0x0 KECCAK256 PUSH1 0x1 ADD PUSH1 0x0 PUSH2 0x100 EXP DUP2 SLOAD DUP2 PUSH1 0xFF MUL NOT AND SWAP1 DUP4 PUSH1 0x3 DUP2 GT ISZERO PUSH2 0xF48 JUMPI PUSH2 0xF47 PUSH2 0x1176 JUMP JUMPDEST JUMPDEST MUL OR SWAP1 SSTORE POP JUMPDEST JUMPDEST JUMPDEST POP POP POP JUMP JUMPDEST PUSH1 0x0 DUP2 CALLDATALOAD SWAP1 POP PUSH2 0xF64 DUP2 PUSH2 0x11AA JUMP JUMPDEST SWAP3 SWAP2 POP POP JUMP JUMPDEST PUSH1 0x0 DUP2 CALLDATALOAD SWAP1 POP PUSH2 0xF79 DUP2 PUSH2 0x11BA JUMP JUMPDEST SWAP3 SWAP2 POP POP JUMP JUMPDEST PUSH1 0x0 PUSH1 0x20 DUP3 DUP5 SUB SLT ISZERO PUSH2 0xF95 JUMPI PUSH2 0xF94 PUSH2 0x11A5 JUMP JUMPDEST JUMPDEST PUSH1 0x0 PUSH2 0xFA3 DUP5 DUP3 DUP6 ADD PUSH2 0xF55 JUMP JUMPDEST SWAP2 POP POP SWAP3 SWAP2 POP POP JUMP JUMPDEST PUSH1 0x0 PUSH1 0x20 DUP3 DUP5 SUB SLT ISZERO PUSH2 0xFC2 JUMPI PUSH2 0xFC1 PUSH2 0x11A5 JUMP JUMPDEST JUMPDEST PUSH1 0x0 PUSH2 0xFD0 DUP5 DUP3 DUP6 ADD PUSH2 0xF6A JUMP JUMPDEST SWAP2 POP POP SWAP3 SWAP2 POP POP JUMP JUMPDEST PUSH1 0x0 DUP1 PUSH1 0x40 DUP4 DUP6 SUB SLT ISZERO PUSH2 0xFF0 JUMPI PUSH2 0xFEF PUSH2 0x11A5 JUMP JUMPDEST JUMPDEST PUSH1 0x0 PUSH2 0xFFE DUP6 DUP3 DUP7 ADD PUSH2 0xF6A JUMP JUMPDEST SWAP3 POP POP PUSH1 0x20 PUSH2 0x100F DUP6 DUP3 DUP7 ADD PUSH2 0xF55 JUMP JUMPDEST SWAP2 POP POP SWAP3 POP SWAP3 SWAP1 POP JUMP JUMPDEST PUSH2 0x1022 DUP2 PUSH2 0x10D0 JUMP JUMPDEST DUP3 MSTORE POP POP JUMP JUMPDEST PUSH1 0x0 PUSH1 0x20 DUP3 ADD SWAP1 POP PUSH2 0x103D PUSH1 0x0 DUP4 ADD DUP5 PUSH2 0x1019 JUMP JUMPDEST SWAP3 SWAP2 POP POP JUMP JUMPDEST PUSH1 0x0 PUSH2 0x104E DUP3 PUSH2 0x10D0 JUMP JUMPDEST SWAP2 POP PUSH2 0x1059 DUP4 PUSH2 0x10D0 JUMP JUMPDEST SWAP3 POP DUP3 PUSH32 0xFFFFFFFFFFFFFFFFFFFFFFFFFFFFFFFFFFFFFFFFFFFFFFFFFFFFFFFFFFFFFFFF SUB DUP3 GT ISZERO PUSH2 0x108E JUMPI PUSH2 0x108D PUSH2 0x1118 JUMP JUMPDEST JUMPDEST DUP3 DUP3 ADD SWAP1 POP SWAP3 SWAP2 POP POP JUMP JUMPDEST PUSH1 0x0 PUSH2 0x10A4 DUP3 PUSH2 0x10DA JUMP JUMPDEST SWAP2 POP PUSH2 0x10AF DUP4 PUSH2 0x10DA JUMP JUMPDEST SWAP3 POP DUP3 PUSH1 0xFF SUB DUP3 GT ISZERO PUSH2 0x10C5 JUMPI PUSH2 0x10C4 PUSH2 0x1118 JUMP JUMPDEST JUMPDEST DUP3 DUP3 ADD SWAP1 POP SWAP3 SWAP2 POP POP JUMP JUMPDEST PUSH1 0x0 DUP2 SWAP1 POP SWAP2 SWAP1 POP JUMP JUMPDEST PUSH1 0x0 PUSH1 0xFF DUP3 AND SWAP1 POP SWAP2 SWAP1 POP JUMP JUMPDEST PUSH1 0x0 PUSH2 0x10F2 DUP3 PUSH2 0x10DA JUMP JUMPDEST SWAP2 POP PUSH2 0x10FD DUP4 PUSH2 0x10DA JUMP JUMPDEST SWAP3 POP DUP3 PUSH2 0x110D JUMPI PUSH2 0x110C PUSH2 0x1147 JUMP JUMPDEST JUMPDEST DUP3 DUP3 MOD SWAP1 POP SWAP3 SWAP2 POP POP JUMP JUMPDEST PUSH32 0x4E487B7100000000000000000000000000000000000000000000000000000000 PUSH1 0x0 MSTORE PUSH1 0x11 PUSH1 0x4 MSTORE PUSH1 0x24 PUSH1 0x0 REVERT JUMPDEST PUSH32 0x4E487B7100000000000000000000000000000000000000000000000000000000 PUSH1 0x0 MSTORE PUSH1 0x12 PUSH1 0x4 MSTORE PUSH1 0x24 PUSH1 0x0 REVERT JUMPDEST PUSH32 0x4E487B7100000000000000000000000000000000000000000000000000000000 PUSH1 0x0 MSTORE PUSH1 0x21 PUSH1 0x4 MSTORE PUSH1 0x24 PUSH1 0x0 REVERT JUMPDEST PUSH1 0x0 DUP1 REVERT JUMPDEST PUSH1 0x3 DUP2 LT PUSH2 0x11B7 JUMPI PUSH1 0x0 DUP1 REVERT JUMPDEST POP JUMP JUMPDEST PUSH2 0x11C3 DUP2 PUSH2 0x10D0 JUMP JUMPDEST DUP2 EQ PUSH2 0x11CE JUMPI PUSH1 0x0 DUP1 REVERT JUMPDEST POP JUMP INVALID LOG2 PUSH5 0x6970667358 0x22 SLT KECCAK256 SWAP4 SHR 0xEC 0xF9 0xD5 0xC9 0xD9 PUSH25 0x69E73C15FE78A9488EBB39D33E134D09C6931513BD07F64764 PUSH20 0x6F6C634300080700330000000000000000000000 "
				},
				"gasEstimates": {
					"creation": {
						"codeDepositCost": "923000",
						"executionCost": "5944",
						"totalCost": "928944"
					},
					"external": {
						"checkTotalPay(uint256)": "infinite",
						"createRoom(uint8)": "infinite",
						"joinRoom(uint256,uint8)": "infinite",
						"payout(uint256)": "infinite"
					},
					"internal": {
						"compareHands(uint256)": "infinite"
					}
				},
				"methodIdentifiers": {
					"checkTotalPay(uint256)": "393af760",
					"createRoom(uint8)": "0f36f3b5",
					"joinRoom(uint256,uint8)": "79b15776",
					"payout(uint256)": "e1152343"
				}
			},
			"storageLayout": {
				"storage": [
					{
						"astId": 47,
						"contract": "remixd_practice/game.sol:RPS",
						"label": "rooms",
						"offset": 0,
						"slot": "0",
						"type": "t_mapping(t_uint256,t_struct(Game)42_storage)"
					},
					{
						"astId": 50,
						"contract": "remixd_practice/game.sol:RPS",
						"label": "roomLen",
						"offset": 0,
						"slot": "1",
						"type": "t_uint256"
					}
				],
				"types": {
					"t_address_payable": {
						"encoding": "inplace",
						"label": "address payable",
						"numberOfBytes": "20"
					},
					"t_enum(GameStatus)19": {
						"encoding": "inplace",
						"label": "enum RPS.GameStatus",
						"numberOfBytes": "1"
					},
					"t_enum(Hand)9": {
						"encoding": "inplace",
						"label": "enum RPS.Hand",
						"numberOfBytes": "1"
					},
					"t_enum(PlayerStatus)14": {
						"encoding": "inplace",
						"label": "enum RPS.PlayerStatus",
						"numberOfBytes": "1"
					},
					"t_mapping(t_uint256,t_struct(Game)42_storage)": {
						"encoding": "mapping",
						"key": "t_uint256",
						"label": "mapping(uint256 => struct RPS.Game)",
						"numberOfBytes": "32",
						"value": "t_struct(Game)42_storage"
					},
					"t_struct(Game)42_storage": {
						"encoding": "inplace",
						"label": "struct RPS.Game",
						"members": [
							{
								"astId": 32,
								"contract": "remixd_practice/game.sol:RPS",
								"label": "betAmount",
								"offset": 0,
								"slot": "0",
								"type": "t_uint256"
							},
							{
								"astId": 35,
								"contract": "remixd_practice/game.sol:RPS",
								"label": "gameStatus",
								"offset": 0,
								"slot": "1",
								"type": "t_enum(GameStatus)19"
							},
							{
								"astId": 38,
								"contract": "remixd_practice/game.sol:RPS",
								"label": "originator",
								"offset": 0,
								"slot": "2",
								"type": "t_struct(Player)30_storage"
							},
							{
								"astId": 41,
								"contract": "remixd_practice/game.sol:RPS",
								"label": "taker",
								"offset": 0,
								"slot": "4",
								"type": "t_struct(Player)30_storage"
							}
						],
						"numberOfBytes": "192"
					},
					"t_struct(Player)30_storage": {
						"encoding": "inplace",
						"label": "struct RPS.Player",
						"members": [
							{
								"astId": 22,
								"contract": "remixd_practice/game.sol:RPS",
								"label": "hand",
								"offset": 0,
								"slot": "0",
								"type": "t_enum(Hand)9"
							},
							{
								"astId": 24,
								"contract": "remixd_practice/game.sol:RPS",
								"label": "addr",
								"offset": 1,
								"slot": "0",
								"type": "t_address_payable"
							},
							{
								"astId": 27,
								"contract": "remixd_practice/game.sol:RPS",
								"label": "playerStatus",
								"offset": 21,
								"slot": "0",
								"type": "t_enum(PlayerStatus)14"
							},
							{
								"astId": 29,
								"contract": "remixd_practice/game.sol:RPS",
								"label": "playerBetAmount",
								"offset": 0,
								"slot": "1",
								"type": "t_uint256"
							}
						],
						"numberOfBytes": "64"
					},
					"t_uint256": {
						"encoding": "inplace",
						"label": "uint256",
						"numberOfBytes": "32"
					}
				}
			},
			"userdoc": {
				"kind": "user",
				"methods": {},
				"version": 1
			}
		}
	}
}